:1000000014C1000043C1000041C100003FC1000015
:100010003DC100003BC1000039C1000037C10000F4
:1000200035C1000033C1000031C100002FC1000004
:100030002DC100002BC1000029C1000027C1000014
:1000400025C1000023C1000021C100001FC1000024
:100050001DC100001BC1000019C100000C94500F0D
:1000600015C100000C94090E0C94E00D0FC10000A6
:100070000DC100000BC1000009C1000007C1000054
:1000800005C1000003C1000001C10000FFC0000065
:10009000FDC00000FBC00000F9C00000F7C0000078
:1000A000F5C00000F3C00000F1C00000EFC0000088
:1000B000EDC00000EBC00000E9C00000E7C0000098
:1000C000E5C00000E3C00000E1C00000DFC00000A8
:1000D000DDC00000DBC00000D9C00000D7C00000B8
:1000E000D5C000006E0E710E600E640E680EA80E74
:1000F000750E790E7F0E830E870E8D0E910E950E66
:10010000A80E9B0E9F0EA30E0000210024002700C6
:100110002A002D0030003300010100000401070116
:100120000A0100002200250028002B002E003100CB
:10013000340002010000050108010B0100000A0B58
:1001400002090C0D0E080703040100000000000066
:10015000000000000000000000000000000000009F
:10016000000000000000000012111000000000005C
:10017000000000000000000000000000000000007F
:100180000000000020002300260029002C002F0082
:100190003200000100000301060109010505050503
:1001A000070508080808020202020A0A08080404EF
:1001B000040401010101010101010303030303031D
:1001C0000303040707070C0C0C0C0C0C0C0C0202AC
:1001D000020206060606060606060B0B0B0B0B0BA9
:1001E0000B0B010210202008081020401020408036
:1001F00002010201080402010102040810204080EB
:100200008040201008040201800402018040201078
:1002100008040201080402010102040810204080C1
:1002200001020408102040802C1911241FBECFEFBA
:10023000D1E2DEBFCDBF00E00CBF14E0A0E0B2E031
:10024000E4EAFCE300E00BBF02C007900D92A63188
:10025000B107D9F725E0A6E1B4E001C01D92AD37A2
:10026000B207E1F711E0C5E1D1E000E006C0219757
:100270000109802FFE010E943D1EC431D10780E09C
:100280000807A9F70E94011A0C94501EB9CE2091BC
:100290007C0590E0233311F40C9601C04896982F0A
:1002A000990F990F990F80E008950895CF93DF93E8
:1002B0001F92CDB7DEB76983DC01ED91FC9102801E
:1002C000F381E02D41E050E0BE016F5F7F4F199553
:1002D0000F90DF91CF910895FC01818D928D08954B
:1002E000CF93DF931F92CDB7DEB76983DC01ED9129
:1002F000FC910280F381E02D41E050E0BE016F5F90
:100300007F4F19950F90DF91CF910895FC0194854F
:10031000FB018485981303C081E0983008F080E0E9
:100320000895CF93DF931F92CDB7DEB76983DC01C9
:10033000ED91FC910280F381E02D41E050E0BE019F
:100340006F5F7F4F19950F90DF91CF910895FC015A
:10035000768765870895DC01ED91FC91068CF78D19
:10036000E02D199591E089270895862F089581E061
:100370008627089521E0FC018485883008F020E07C
:10038000822F0895FC01848595850895FC01848958
:10039000958908952AE632E0FC0131832083FB0130
:1003A0004089518962897389FC0142835383648344
:1003B00075830895DC01ED91FC91048CF58DE02DA1
:1003C000199480E00895089580E090E00895AF9238
:1003D000BF92CF92DF92EF92FF920F931F93CF9332
:1003E000DF93CDB7DEB7AF970FB6F894DEBF0FBE81
:1003F000CDBF8C015B016A01CE0101960E942218DB
:100400008AE6E82E82E0F82EFBA6EAA61CA61DA628
:100410001EA61FA68091C4049091C504A091C60495
:10042000B091C7048EA39FA3A8A7B9A78B839C8371
:10043000AD83BE8318861F82AE01465D5F4FB50156
:10044000CE0101960E94CA1581309105B1F4D80100
:10045000ED91FC910488F589E02DFDA2ECA28CA51C
:100460009DA5AEA5BFA58EA39FA3A8A7B9A7A601CA
:10047000BE016C5D7F4FC8011995AF960FB6F89419
:10048000DEBF0FBECDBFDF91CF911F910F91FF90C7
:10049000EF90DF90CF90BF90AF900895E091170458
:1004A000F0911804908180911604892B808308951F
:1004B000E0911704F09118049081809116048095C2
:1004C000892380830895CF93DF931F92CDB7DEB742
:1004D000898341E050E0BE016F5F7F4F80E090E094
:1004E0000E94B2100F90DF91CF9108958EBD000051
:1004F0000DB407FEFDCF8EB50895DA019091190471
:10050000E92FF0E0FE2FEE27E60FF71F90E0982F7F
:100510008827A901BD018E0F9F1F0C94B210CF93A5
:10052000DF931F921F92CDB7DEB779836A8322E0F3
:1005300030E0AE014F5F5F4F60E170E0DEDF0F90B3
:100540000F90DF91CF910895CF93DF931F921F9269
:10055000CDB7DEB779836A8322E030E0AE014F5F2A
:100560005F4F64E070E0C9DF0F900F90DF91CF9193
:100570000895CF93DF931F92CDB7DEB79091190402
:10058000292F30E0322F2227260F371F90E0982F97
:100590008827498341E050E0BE016F5F7F4F820FA3
:1005A000931F0E94B2100F90DF91CF910895CF93C7
:1005B000DF931F92CDB7DEB741E050E0BE016F5F21
:1005C0007F4F0E94271089810F90DF91CF9108956E
:1005D00080E090E0ECCFCF93DF9380E874DFC4E15C
:1005E000D0E0F6DF882351F061E070E080E090E039
:1005F0000E940C0F2197A9F780E001C081E0DF91F4
:10060000CF91089590911904292F30E0322F22279D
:10061000260F371F90E0982F8827820F931FC7CF90
:1006200063E070E0EFCFDA0190911904E92FF0E078
:10063000FE2FEE27E60FF71F90E0982F8827A901DD
:10064000BD018E0F9F1F0C9427107F928F929F9257
:10065000AF92BF92CF92DF92EF92FF920F931F93D0
:10066000CF93DF931F921F92CDB7DEB7782E8B0109
:100670004A01590122E030E0AE014F5F5F4F64E272
:1006800070E0D1DFE980FA80FE24EF24FE24E00E42
:10069000F11E9701377040917C05072D10E0C801CD
:1006A000433311F4089601C04096982F8827990F7C
:1006B000990F990F820F931F473319F4A501B401C5
:1006C00020C0A9014A0D5B1D41305840B8F360E0DD
:1006D00078E06B01C21AD30AA601B4010E94B210DD
:1006E000A5014C195D09B4016C0D7D1D80917C053F
:1006F000833331F5085F1F4F902F990F990F990F92
:1007000080E00E94B210EA0CFB1CF982EA8222E02F
:1007100030E0AE014F5F5F4F64E270E0872DEDDEA9
:100720000F900F90DF91CF911F910F91FF90EF905D
:10073000DF90CF90BF90AF909F908F907F90089563
:10074000005F1F4FD9CFEF92FF921F93CF93DF939C
:100750001F921F92CDB7DEB7182F22E030E0AE0116
:100760004F5F5F4F60E270E05EDFE980FA80FE2459
:10077000EF24FE2422E030E0AE014F5F5F4F60E2E5
:1007800070E0812F50DF89819A81982789279827E7
:10079000E816F90611F07C01EDCF87E0189FF00113
:1007A0001124EC5CFA4FF582E482C7010F900F90A0
:1007B000DF91CF911F91FF90EF900895FF920F93DB
:1007C0001F93CF93DF931F921F92CDB7DEB7F82E02
:1007D00022E030E0AE014F5F5F4F66E270E023DF62
:1007E00009811A8110270127102722E030E0AE018D
:1007F0004F5F5F4F66E270E08F2D15DF89819A8130
:100800009827892798270817190711F08C01EDCF31
:10081000C8010F900F90DF91CF911F910F91FF9022
:10082000089508958CBD9DBD0895FF920F931F9369
:10083000CF93DF931F921F92CDB7DEB7F82ECE0174
:1008400001960E94FF1289819A81ECDF8F2D7BDF58
:100850008C018F2DE5DE873129F08C3119F080E095
:1008600090E001C0C8010F900F90DF91CF911F91D0
:100870000F91FF900895FC018485883008F4D5CF4E
:1008800080E090E00895AF92BF92CF92DF92FF9206
:100890000F931F93CF93DF931F921F92CDB7DEB7B5
:1008A000F82E6B018A014130584010F000E018E04A
:1008B000CE0101960E94FF1289819A81B3DF8F2DAC
:1008C00042DF5C018F2DACDE873111F08C3121F4D9
:1008D000A016B10668F302C000E010E0CE01019658
:1008E0000E94FF1289819A819DDF9801A60160E034
:1008F00070E08F2DAADE60E270E08F2D0E9417104D
:1009000062E070E08F2D7EDE84FD0CC08F2D88DECE
:10091000882379F0CE0101960E94FF1289819A8185
:1009200081DFEECF40E162E070E08F2D22DEC80172
:1009300002C080E090E00F900F90DF91CF911F9167
:100940000F91FF90DF90CF90BF90AF9008950F93DD
:100950001F93CF93DF93FC018485883060F4C52F0B
:10096000D42F8F0190DF009749F421E030E0F801A7
:100970003383228305C080E090E002C08D2F9C2F3E
:10098000DF91CF911F910F9108951F93CF93DF9324
:100990001F921F92CDB7DEB7182FCE0101960E948D
:1009A000FF1289819A813EDF812F71DC27E0129F3F
:1009B000F0011124EC5CFA4F22813381377041E061
:1009C00050E0BE016F5F7F4F820F931F0E94271080
:1009D00089810F900F90DF91CF911F910895FC01B5
:1009E000808D883038F4218D328D232B19F0CDDFA6
:1009F00090E008958FEF9FEF0895CF93DF93FC0170
:100A00002485283018F08FEF9FEF0DC0EC01019086
:100A1000F081E02D0084F185E02D1995892B99F363
:100A20008C85B3DF90E0DF91CF910895FF920F9313
:100A30001F93CF93DF931F921F92CDB7DEB7282F5E
:100A400087E0289F800111240C5C1A4FF8018081F7
:100A50009181009781F4F22ECE0101960E94FF123F
:100A600089819A81DFDE8F2DA9DEF8012681821B24
:100A70009109918380830F900F90DF91CF911F9107
:100A80000F91FF900895FC018485883008F4CECF43
:100A900080E090E008954F925F927F928F929F92B4
:100AA000AF92BF92CF92DF92EF92FF920F931F937C
:100AB000CF93DF931F921F92CDB7DEB7782E6B01D5
:100AC0004A01A82EB12C27E0829FC0011124AC015D
:100AD0004C5C5A4F7A01FA0100811181CE010196D6
:100AE0000E94FF1289819A819DDE081519054CF438
:100AF000872D64DEF70126818C01021B1109118309
:100B000000830115110591F4872D8ADD843109F4E4
:100B10007DC0882309F47AC001E010E08C3111F423
:100B200000E010E011950195110970C08016910642
:100B30000CF4840187E08A9DF0018B9DF00D112457
:100B4000EC5CFA4FE280F380C114D10449F1270133
:100B5000F7E05F22872D9BDB840D951D20917C059E
:100B6000273319F4A801B60119C09801240D351DC9
:100B700021303840B8F320E038E049018418950866
:100B8000A401B6010E9427102601480C591C6801D7
:100B9000C818D908872D7BDBA601B2010E94271057
:100BA000E00EF11E87E08A9DF0018B9DF00D11246F
:100BB000EC5CFA4FF382E28280819181801B910B81
:100BC000918380832681A801420F511D4A3F510520
:100BD00010F4892BD1F487E08A9DF0018B9DF00DF4
:100BE0001124EC5CFA4F1682F982EA8222E030E0AE
:100BF000AE014F5F5F4F68E270E0872D7EDC60E4FE
:100C000070E0872D0E94171001C04683C8010F9025
:100C10000F90DF91CF911F910F91FF90EF90DF9098
:100C2000CF90BF90AF909F908F907F905F904F90AC
:100C30000895CF93DF93FC01218D328D211531056D
:100C400019F48FEF9FEF10C0EC014217530708F023
:100C5000A901888D20DF181619069CF7298D3A8D79
:100C6000281B390B3A8F298FDF91CF9108950F936D
:100C70001F93CF93DF931F92CDB7DEB7FC01218D79
:100C8000328D232B59F08C0141E050E0BE016F5FA3
:100C90007F4F808D00DF181619061CF08FEF9FEF35
:100CA00008C0F801818D928D0197928F818F898183
:100CB00090E00F90DF91CF911F910F9108950F93C6
:100CC0001F93CF93DF93CDB7DEB728970FB6F89475
:100CD000DEBF0FBECDBF8C01D80159964D915C91FE
:100CE0005A974115510551F0ED91FC91048CF58D09
:100CF000E02D60E070E0C8011995EECFF801808D1D
:100D000095DE892B49F148E050E0BE016F5F7F4FCF
:100D1000D80158968C91BFDE18161906FCF4D8013C
:100D2000509684E0FE01319601900D928A95E1F78C
:100D30008D8190E0982F88272E81820F911DF801D8
:100D4000958B848B8F8190E0982F88272885820F40
:100D5000911D928F818F02C080E090E028960FB69F
:100D6000F894DEBF0FBECDBFDF91CF911F910F91E1
:100D70000895CF93DF931F92CDB7DEB741E050E0E7
:100D8000BE016F5F7F4FFC01848585DE1816190652
:100D90001CF4898190E002C08FEF9FEF0F90DF91EC
:100DA000CF910895FC018485883008F474CE80E0EA
:100DB00090E008951F93CF93DF931F921F92CDB7BA
:100DC000DEB7182FCE0101960E94FF1289819A8109
:100DD00029DD68E070E0812F0E9417100F900F90BE
:100DE000DF91CF911F9108951F93CF93DF931F92AF
:100DF0001F92CDB7DEB7182FCE0101960E94FF12C9
:100E000089819A810FDD60E170E0812F0E941710C7
:100E10000F900F90DF91CF911F910895CF92DF92A5
:100E2000EF92FF920F931F93CF93DF9300D000D0E8
:100E3000CDB7DEB78C016B017A01FC01808D883063
:100E400008F4D2DF8AE692E09A838983F6018281F0
:100E50009381A481B5818B839C83AD83BE83B701CD
:100E6000CE0101960E944218F801808F883030F43C
:100E7000F586E486128E118E81E001C080E0269610
:100E80000FB6F894DEBF0FBECDBFDF91CF911F919B
:100E90000F91FF90EF90DF90CF900895CF93DF9365
:100EA000FC01808D883020F4EF019EDF88E0888F80
:100EB000DF91CF9108951F93CF93DF931F921F92DD
:100EC000CDB7DEB7182FCE0101960E94FF1289819F
:100ED0009A81A8DC812FA4DB0F900F90DF91CF9136
:100EE0001F910895EF92FF920F931F93CF93DF937B
:100EF0007C0180917C05833311F4D4E001C0D8E0FB
:100F00000CE615E0C0E0F801219131918F01F70165
:100F1000848195812817390729F0CF5FDC13F3CF3F
:100F200080E005C08C2FC7DF8431B9F781E0DF9105
:100F3000CF911F910F91FF90EF9008959F92AF92E4
:100F4000BF92CF92DF92EF92FF920F931F93CF93B6
:100F5000DF93EC016B0180917C05811111C01B8234
:100F60001A8288EE93E0A0E0B0E08C839D83AE838C
:100F7000BF838CE092E09983888388E08C8753C09C
:100F8000833319F434E0932E02C028E0922E8CE6CD
:100F9000E82E85E0F82E10E098E0B92EA12CD701BC
:100FA0002D913C91F6018481958128173907E1F450
:100FB000812F81DF082F873111F08C3149F4812F87
:100FC00035DD892B69F40C3179F4812FF3DE0CC007
:100FD000843141F0811108C0D7011D921C9204C0D8
:100FE000B12E02C0AA24A3941F5FB2E0EB0EF11C45
:100FF0009112D5CFA11008C0D601ED91FC910084CB
:10100000F185E02DC60119951B821A8288EE93E0C6
:10101000A0E0B0E08C839D83AE83BF838CE092E040
:1010200099838883BC8688EE93E09E878D87CE0166
:10103000DF91CF911F910F91FF90EF90DF90CF90B4
:10104000BF90AF909F9008958F929F92AF92BF9262
:10105000CF92DF92EF92FF920F931F93CF93DF9384
:10106000CDB7DEB72F970FB6F894DEBF0FBECDBF5A
:1010700020917C05222351F1233319F434E0E32E2F
:1010800002C028E0E22E8A015B016C01BC01CE01A6
:10109000019654DF8CE6882E85E0982EF12CF40121
:1010A000219131914F01F6018481958128173907EB
:1010B00041F48F2D00DF873121F4A801B5018F2D78
:1010C000E2DBF394EF10EBCFC80102C080E090E0C8
:1010D0002F960FB6F894DEBF0FBECDBFDF91CF9134
:1010E0001F910F91FF90EF90DF90CF90BF90AF9046
:1010F0009F908F900895CF93DF93EC018C8588307B
:10110000C0F4D9DE843181F0882371F0883161F038
:101110008C3161F4E881F9810084F185E02DCE0104
:10112000199521E0892B19F420E001C021E0822FDC
:1011300001C080E0DF91CF910895CF92DF92EF92CE
:10114000FF92CF93DF93EC018C85883008F532DE77
:101150009BD66B017C018C85AEDE8823B9F061E003
:1011600070E080E090E058D68FD6AB01BC014C19FE
:101170005D096E097F098D859E85A0E0B0E0481766
:1011800059076A077B0738F38C852EDE88E08C8749
:10119000DF91CF91FF90EF90DF90CF900895CF93A4
:1011A000DF93EC018C85883050F485DE873111F0B7
:1011B0008C3129F48C8539DB8115984098F3DF91C7
:1011C000CF910895CF92DF92EF92FF920F931F93EA
:1011D000CF93DF93CDB7DEB7AF970FB6F894DEBFEE
:1011E0000FBECDBF8C016B017A01CE0101960E942A
:1011F00022188AE692E09BA78AA71CA61DA61EA617
:101200001FA6D8011C968C91883050F454DE882398
:1012100019F0F8018485CEDD88E0D8011C968C9306
:101220008091C4049091C504A091C604B091C704F4
:101230008EA39FA3A8A7B9A78B839C83AD83BE83EE
:1012400018861F82AE01465D5F4FB601CE01019642
:101250000E94CA150097C1F0D801ED91FC91068457
:10126000F785E02D8AE692E09DA38CA38CA59DA531
:10127000AEA5BFA58EA39FA3A8A7B9A7A701BE012E
:101280006C5D7F4FC8011995AF960FB6F894DEBF1D
:101290000FBECDBFDF91CF911F910F91FF90EF90C7
:1012A000DF90CF9008958F929F92BF92CF92DF925E
:1012B000EF92FF920F931F93CF93DF93CDB7DEB7DB
:1012C0002A970FB6F894DEBF0FBECDBF90917C0574
:1012D000911102C088E08AC0933319F028E0B22E41
:1012E00002C094E0B92E6B01082FCE0101960E9436
:1012F000FF1289819A8196DA9E012F5F3F4F790113
:10130000490110E0812F8CD9F40181934F0188238A
:10131000B1F01F5FB112F6CF10E0F70191917F019C
:101320009D3149F0983139F09A51923020F01F5F89
:10133000B112F3CFCFCF60E170E0812F78D6E12EEC
:10134000F12CF701EE0FFF1FE459FA4F11821082C2
:1013500083EE93E00197F1F7402F60E070E0812F7A
:1013600008D94FEF62E070E0812F03D9C114D10496
:1013700011F0B60113C08091060290910702019608
:101380008115F0EC9F0710F480E090EC9093070239
:10139000809306026091060270910702812FD4D8D3
:1013A00061E070E0812F43D627E02E9DC0012F9D84
:1013B000900D11249C012C5C3A4F7901F9011182A6
:1013C000108222E030E0AE01475F5F4F68E270E0DC
:1013D000812F29D989859A85982789279827F70108
:1013E00093838283168215821482812F2A960FB6E8
:1013F000F894DEBF0FBECDBFDF91CF911F910F914B
:10140000FF90EF90DF90CF90BF909F908F900895C6
:101410000F931F93CF93DF93EC018B01888D88305E
:1014200008F4E2DCB80182E03EDF888F883030F4D7
:101430001D870C871A8E198E81E001C080E0DF9134
:10144000CF911F910F9108957F928F929F92AF92AB
:10145000BF92CF92DF92EF92FF920F931F93CF93A1
:10146000DF931F921F92CDB7DEB77C014B01742E24
:10147000C52EFC01A688B788D08CCE0101960E94AB
:10148000FF1289819A81CED98D2D5DD9072D1C2D12
:101490008017910708F48C019801A401B5018D2DE6
:1014A000D4D8F70186899789800F911F978B868BF7
:1014B000C8010F900F90DF91CF911F910F91FF9076
:1014C000EF90DF90CF90BF90AF909F908F907F90E4
:1014D00008951F93CF93DF931F921F92CDB7DEB76E
:1014E000FC01108DCE0101960E94FF1289819A8124
:1014F00099D960E270E0812F9AD562E070E0812F87
:1015000081D884FD15C062E070E0812F7BD883FF15
:1015100007C048E162E070E0812F2BD880E00EC068
:10152000CE0101960E94FF1289819A817BD9E5CF75
:1015300040E162E070E0812F1CD881E090E00F90E4
:101540000F90DF91CF911F910895DF92EF92FF925C
:101550000F931F93CF93DF931F921F92CDB7DEB7E8
:10156000FB01DC0157961C921E9256972281211195
:1015700009C02381211106C02481211103C02581C6
:101580002223F1F041155105D9F07A018F01FC01B8
:10159000D08CCE0101960E94FF1289819A8142D996
:1015A000A8014E5F5F4F24E030E06CE070E08D2DCD
:1015B0000E947D02B7018D2D0E948F0281E001C043
:1015C00080E090E00F900F90DF91CF911F910F91ED
:1015D000FF90EF90DF900895EF92FF921F93CF93CB
:1015E000DF931F921F92CDB7DEB77C01FC016481AF
:1015F000758181E258DE182F8830E0F4CE01019623
:10160000FED789819A810ED9812F0AD8833181F43E
:1016100062E070E0812F0BD5F70184819581E12F85
:10162000F0E0EE0FFF1FE459FA4F9183808302C070
:10163000812FC0DB0F900F90DF91CF911F91FF9012
:10164000EF9008950F931F93CF93DF931F921F92F4
:10165000CDB7DEB7FC0124852830C0F48C01CE0163
:101660000196CDD789819A81DDD822E030E0AE01A4
:101670004F5F5F4F60E170E0F80184850E941303C3
:1016800089819A8198278927982702C080E090E075
:101690000F900F90DF91CF911F910F910895EF92CE
:1016A000FF920F931F93CF93DF9300D01F92CDB77C
:1016B000DEB78C017B01FB018485883050F08AE61F
:1016C00092E0F80191838083128213821482158242
:1016D0001EC0CE01019693D789819A81A3D824E0B8
:1016E00030E0AE014F5F5F4F6CE070E0F701848542
:1016F0000E9413038AE692E0F80191838083898136
:101700009A81AB81BC8182839383A483B583C80112
:101710000F900F900F900F90DF91CF911F910F912D
:10172000FF90EF9008950F931F93CF93DF931F9235
:101730001F92CDB7DEB7FC0124852830C0F48C01A0
:10174000CE0101965CD789819A816CD822E030E085
:10175000AE014F5F5F4F64E070E0F80184850E9446
:10176000130389819A8198278927982702C080E0EE
:1017700090E00F900F90DF91CF911F910F910895FE
:10178000AF92BF92CF92DF92EF92FF920F931F938F
:10179000CF93DF931F921F92CDB7DEB78C016B0101
:1017A0005A01FC018485883048F485DB882319F0D0
:1017B000F8018485FFDA88E0F8018487F6018281E8
:1017C0009381A481B5810097A105B10509F452C0A8
:1017D0008F3F9F4FAF4FBF4F09F44CC060E070E0A8
:1017E00081E261DDF82EF8018487F7E0F81708F44C
:1017F00041C0CE01019603D789819A8113D8A601F1
:101800004E5F5F4F24E030E06CE070E08F2D0E946F
:101810007D02B5018F2D0E948F0264E070E08F2D54
:1018200006D432D36B017C01F801848544DB873117
:1018300021F18C3111F18823E9F026D3AB01BC01F1
:101840004C195D096E097F09F80185859685A0E030
:10185000B0E084179507A607B70730F061E070E0A5
:1018600080E090E0D9D2E0CFF8018485BDDA88E04D
:10187000F801848780E090E002C081E090E00F9062
:101880000F90DF91CF911F910F91FF90EF90DF901C
:10189000CF90BF90AF900895FC01538D448D252FBC
:1018A00030E0842F90E0821B930B541710F0CF96FA
:1018B000089501970895FC01918D828D981761F02C
:1018C000828DDF01A80FB11D5D968C91928D9F5F77
:1018D0009F73928F90E008958FEF9FEF0895FC0122
:1018E000918D828D981731F0828DE80FF11D858DD5
:1018F00090E008958FEF9FEF0895FC01918D228D68
:10190000892F90E0805C9F4F821B91098F739927EC
:10191000089585E294E0F1DF21E0892B09F420E0CD
:10192000822F0895FC01848DDF01A80FB11DA35AF9
:10193000BF4F2C91848D90E001968F739927848FEF
:10194000A689B7892C93A089B1898C918370806412
:101950008C93938D848D981306C00288F389E02DB3
:1019600080818F7D80830895EF92FF920F931F9364
:10197000CF93DF93EC0181E0888F9B8D8C8D981342
:1019800005C0E889F989808185FD25C0F62E0B8D7B
:1019900010E00F5F1F4F0F731127E02E8C8DE812A0
:1019A0000BC00FB607FCFACFE889F989808185FF63
:1019B000F5CFCE01B7DFF2CF8B8DFE01E80FF11D21
:1019C000E35AFF4FF0829FB7F8940B8FEA89FB89A7
:1019D000808180620AC09FB7F894EE89FF89608396
:1019E000E889F98980818370806480839FBF81E06A
:1019F00090E0DF91CF911F910F91FF90EF900895AC
:101A0000CF93DF93EC01888D8823C1F0EA89FB89AD
:101A1000808185FD05C0A889B9898C9186FD0EC09D
:101A20000FB607FCF5CF808185FFF2CFA889B98971
:101A30008C9185FFEDCFCE0175DFE8CFDF91CF919F
:101A4000089580E090E0892B19F063DF811125C0B3
:101A500080E090E0892B41F080E090E0892B21F03C
:101A60000E94000081111CC080E090E0892B41F0B1
:101A700080E090E0892B21F00E940000811113C0CA
:101A800080E090E0892BA1F080E090E0892B81F04C
:101A90000E94000081110AC008950E940000D8CF62
:101AA0000E940000E1CF0E940000EACF0C940000E9
:101AB00008953FB7F8948091200490912104A0915B
:101AC0002204B091230426B5A89B05C02F3F19F02E
:101AD0000196A11DB11D3FBFBA2FA92F982F8827AE
:101AE000820F911DA11DB11DBC01CD0142E0660F09
:101AF000771F881F991F4A95D1F70895FC0120810F
:101B00002EBD9B012150310941F051810DB407FEDA
:101B1000FDCF4EB55EBD4193F5CF61507109FC011B
:101B2000E60FF71F0DB407FEFDCF8EB58083089535
:101B30008F929F92AF92BF92CF92DF92EF92FF92DD
:101B40000F931F93CF93DF937C01EB016C0182E035
:101B5000C80ED11C4701E5E08E0E911C00E010E09C
:101B6000F60141916F0150E060E070E02AE0CE01A3
:101B7000D9D65C01E881F9810190F081E02D6EE217
:101B8000CE0119958A0D9B1D080F191F8C149D04F9
:101B900039F7F701458150E060E070E02AE0CE01BE
:101BA000C1D6800F911FDF91CF911F910F91FF90B0
:101BB000EF90DF90CF90BF90AF909F908F9008955F
:101BC0001F920F920FB60F9211240BB60F922F9304
:101BD0003F934F935F936F937F938F939F93AF93B5
:101BE000BF93EF93FF9385E294E09CDEFF91EF912A
:101BF000BF91AF919F918F917F916F915F914F9125
:101C00003F912F910F900BBE0F900FBE0F901F9022
:101C100018951F920F920FB60F9211240BB60F92C8
:101C20002F938F939F93EF93FF93E0913504F0915F
:101C300036048081E0913B04F0913C0482FD12C0A7
:101C4000908180913E048F5F8F7320913F048217B3
:101C500051F0E0913E04F0E0EB5DFB4F958F8093F7
:101C60003E0401C08081FF91EF919F918F912F9150
:101C70000F900BBE0F900FBE0F901F901895362F30
:101C800090E0FC01E45CFE4F4491FC01EE51FE4FFC
:101C90002491FC01E456FE4F9491992309F46CC001
:101CA000442309F455C050E0FA013197E231F105BF
:101CB00008F04EC08827EE58FF4F8F4F0C943D1E02
:101CC000809180008F7707C0809180008F7D03C056
:101CD00080918000877F809380003AC084B58F77A1
:101CE00002C084B58F7D84BD33C08091B0008F77F2
:101CF00003C08091B0008F7D8093B00029C0809197
:101D000090008F7707C0809190008F7D03C08091F5
:101D10009000877F809390001BC08091A0008F77F8
:101D200007C08091A0008F7D03C08091A000877FB5
:101D30008093A0000DC0809120018F7707C0809113
:101D400020018F7D03C080912001877F8093200137
:101D5000E92FF0E0EE0FFF1FEE5DFE4FA591B4916D
:101D60009FB7F894311104C08C912095282302C0AC
:101D7000EC912E2B2C939FBF0895CF93DF93EC0112
:101D800060E08E817CDF61E08E8179DF60E08E81B2
:101D900076DF8BE891E00197F1F7DF91CF9108951D
:101DA000CF93DF9390E0FC01EE51FE4F2491FC01B4
:101DB000E456FE4F8491882361F190E0880F991FCB
:101DC000FC01E85FFE4FC591D491FC01EE5DFE4F32
:101DD000A591B491611109C09FB7F89488812095AD
:101DE00082238883EC912E230BC0623061F49FB76D
:101DF000F8948881322F309583238883EC912E2BA1
:101E00002C939FBF06C08FB7F894E8812E2B2883B0
:101E10008FBFDF91CF9108958F929F92AF92BF9223
:101E2000CF92DF92EF92FF926B017C0142DE4B0179
:101E30005C01C114D104E104F104E9F03ADEDC01F3
:101E4000CB0188199909AA09BB09883E9340A105CD
:101E5000B10578F321E0C21AD108E108F10888EE53
:101E6000880E83E0981EA11CB11CC114D104E104AA
:101E7000F10421F7DECFFF90EF90DF90CF90BF907D
:101E8000AF909F908F9008952FB7F89460911C04A5
:101E900070911D0480911E0490911F042FBF08951E
:101EA0001F920F920FB60F9211242F933F938F938F
:101EB0009F93AF93BF9380911C0490911D04A091B8
:101EC0001E04B0911F0430911B0423E0230F2D3713
:101ED00020F40196A11DB11D05C026E8230F02962E
:101EE000A11DB11D20931B0480931C0490931D041D
:101EF000A0931E04B0931F048091200490912104AC
:101F0000A0912204B09123040196A11DB11D8093DC
:101F1000200490932104A0932204B0932304BF9142
:101F2000AF919F918F913F912F910F900FBE0F9086
:101F30001F901895CF92DF92EF92FF920F931F930D
:101F4000CF93DF936C017C0187E0E80EF11CC0E0C9
:101F5000D0E0062F10E0B8010C2E02C075956795F1
:101F60000A94E2F76170F70181917F0188DE219682
:101F7000C430D10581F7C601DF91CF911F910F9138
:101F8000FF90EF90DF90CF90F8CECF92DF92EF925C
:101F9000FF920F931F93CF93DF93EC01F62E642FE4
:101FA0008C816DDE8D818F3F11F060E068DE8F8562
:101FB0000F2D10E084FF23C06E0187E0C80ED11CF6
:101FC000E12CF12CB8010E2C02C0759567950A948E
:101FD000E2F76170F60181916F0151DEFFEFEF1AB8
:101FE000FF0A88E0E816F10469F7CE01DF91CF918E
:101FF0001F910F91FF90EF90DF90CF90BECEB80170
:1020000084E0759567958A95E1F7CE0193DF6F2D92
:10201000CE01DF91CF911F910F91FF90EF90DF9054
:10202000CF9088CF41E0B1DF81E090E00895CF9379
:10203000C82F462F61E070E00E94B90261E070E0B5
:102040008C2F0E9402038111F9CFCF910895AF9296
:10205000BF92CF92DF92EF92FF920F931F93CF9395
:10206000DF9300D01F92CDB7DEB78C016B017A01F0
:1020700080917C058333F1F45B016801C40ED51EA9
:102080000C151D0509F45EC00E9458028FE00E94E5
:102090007602812F0E947602802F0E9476020F5FC7
:1020A0001F4F80E00E947602F50181935F010E943C
:1020B0004E02E6CF8433E1F40E94580219830A836A
:1020C0008F2D8F778B83EC8264E070E0CE010196D8
:1020D00015DDA70160E070E0C6010E94491EE11411
:1020E000F10419F0B701C60109DD0E944E022AC0B1
:1020F0000E9458020F3F110509F020F419820A834B
:102100001B821DC017FD0BC019820A8333E0169590
:1021100007953A95E1F7007E08600B8310C0C8016F
:1021200026E0969587952A95E1F719830A83807EA4
:102130000115104C10F4806101C088618B8363E04D
:1021400070E0C4CFC7010F900F900F900F90DF91F8
:10215000CF911F910F91FF90EF90DF90CF90BF90A4
:10216000AF900895AF92BF92CF92DF92EF92FF921D
:102170000F931F93CF93DF93CDB7DEB728970FB69A
:10218000F894DEBF0FBECDBF8C017B016A01809148
:102190007C058333E1F45801A40EB51E0A151B0516
:1021A00009F488C00E94580280EF0E947602812FB5
:1021B0000E947602802F0E9476020F5F1F4FF70168
:1021C00081917F010E9476020E944E02E7CF843304
:1021D00011F50E94580219830A838D2D80688B8324
:1021E000CC8264E070E0CE01019688DC87010C0DA2
:1021F0001D1DE016F10661F0F70181917F010E943B
:102200007602F7CFB6016D5F7F4FCE01019676DC87
:102210000E944E024FC00E9458020F3F110509F064
:1022200020F419820A8384E01CC017FD0BC01982B8
:102230000A8333E0169507953A95E1F7007E0C6026
:102240000B8310C0C80126E0969587952A95E1F783
:1022500019830A83807E0115104C10F4846101C03B
:102260008C618B8326E0C216D10498F420E0822F83
:1022700090E08C159D0530F6E4E0F0E0EC0FFD1FDA
:10228000E80FF91FD701A80FB91F8C9180832F5F2A
:10229000EECF63E070E0CE01019630DC87010C0DDB
:1022A0001D1DF70181917F010E947602E016F10663
:1022B000C1F7AECFC60128960FB6F894DEBF0FBEA9
:1022C000CDBFDF91CF911F910F91FF90EF90DF90E5
:1022D000CF90BF90AF9008951F93CF93DF9300D01E
:1022E000CDB7DEB760E372E080E090E095DD1FB728
:1022F000F89480911A04811123C0E1EDF1E08491FA
:10230000E7E1F2E09491E82FF0E0EE0FFF1FE85FC5
:10231000FE4FA591B491EC91E92319F461E085E3B6
:10232000AEDC61E085E33CDD8CB580618CBD8CB5B5
:1023300080648CBD61E084E333DD61E083E330DD04
:1023400080911A048F5F80931A041FBFE6EAF1E0C0
:10235000E491F0E0EE0FFF1FEE5DFE4F859194914A
:102360009093180480931704ECEEF1E0E491E0936D
:10237000160461E08AE014DD0E944E02CE0101964F
:102380003ED189819A810E94120484E380937C0566
:102390000E94EB02882379F188E00E9463020E9488
:1023A000E802883041F580E10E9463020E94E80261
:1023B000803109F580E00E9463020E94E8028111E9
:1023C0001AC08FE190E00E94D7028330A1F480E42C
:1023D0008093190410E042E06EE170E0812F0E94CA
:1023E000B90242E06FE170E0812F0E94B9021F5FE5
:1023F000183089F725C087E380937C050E94EB02A3
:10240000882321F188E00E9463020E94E80288305C
:10241000E9F480E10E9463020E94E802182F8031F3
:10242000A9F480E00E9463020E94E80281110EC0BC
:1024300089E390E00E94D702843041F4109319049C
:102440000E94110481E08093240438C083E38093C8
:102450007C050E94EB02882361F180E10E94630207
:102460000E94E802803129F582E10E9463020E9405
:10247000E8028231F1F480E00E9463020E94E802E7
:10248000811117C084E08093190415E51B8341E096
:1024900050E0BE016D5F7F4F8BE190E063DE1983FA
:1024A00041E050E0BE016F5F7F4F8AE190E05ADE6D
:1024B000C7CF10927C050E94110480E00F900F900E
:1024C0000F90DF91CF911F91089540E0682F84ED28
:1024D00094E05BCDCF93DF93623028F09091E304DA
:1024E00098609093E3046093E7041092E80490E40A
:1024F0009093E9048093EA0490E0805C9F4F80937E
:10250000EB0461E08091D8044BDC8091D9048F3FCB
:1025100011F061E045DC61E08091DA0441DCC4ED5A
:10252000D4E09E01245D34408091E30484FD03C027
:1025300084E090E002C088E090E0219628173907F7
:1025400024F461E08E812CDCECCF8BE39DE00197DD
:10255000F1F760E08091D80492DB60E08091DA04CA
:102560008EDB8091D9048F3F11F060E088DB809191
:10257000E30484FD1CC063E084ED94E0DBDCCBE489
:10258000D6E4CE010197F1F763E084ED94E0D2DC6C
:102590002197F1F763E084ED94E0CCDC83E592E0F1
:1025A0000197F1F762E084ED94E0C4DC12C0806230
:1025B0008CDF8BE496E40197F1F78091E30480626D
:1025C00084DF83E592E00197F1F78091E304806274
:1025D0007CDF8091E304806278DF84E08093E40410
:1025E0008CE073DF81E071DF8BE39FE10197F1F70E
:1025F00082E08093E50486E0DF91CF9166CF20E50D
:10260000FC01208321E021830895CF92DF92EF9295
:10261000FF92CF93DF93CDB7DEB7C454D1090FB685
:10262000F894DEBF0FBECDBFFC01428153816481AF
:10263000758123964CAF5DAF6EAF7FAF239781E07E
:1026400023968FAF23972396CCACDDACEEACFFACDA
:102650002397CBAADCAAEDAAFEAA4DA75EA76FA777
:1026600078AB88ABCDA4DEA4EFA4F8A8CFA2D8A6FF
:10267000E9A6FAA68EABCBA8DCA8EDA8FEA8C9A255
:10268000DAA2EBA2FCA22AE632E03C8B2B8B9FEF76
:102690009D8B9E8B9F8B188E3E872D878AA7CFA000
:1026A000D8A4E9A4FAA4CF86D88AE98AFA8A8CA3A6
:1026B00089A19AA1ABA1BCA189879A87AB87BC8766
:1026C0003A8329834B835C836D837E8380912404CA
:1026D000882309F43AC0CE018D5B9F4F90DF259689
:1026E0008EAD9FAD25970E94120446E050E060E059
:1026F00072E089E090E036DD44E050E0BE016D5FBD
:102700007F4F8FE090E02EDD44E050E0BE01615F3E
:102710007F4F81E090E026DD44E050E0BE016B5E3B
:102720007F4F85E090E01EDD0E94110481E08C87E0
:1027300089859A85AB85BC858093C4049093C50434
:10274000A093C604B093C70403C0C6DD8111C3CFF4
:10275000CC5BDF4F0FB6F894DEBF0FBECDBFDF916D
:10276000CF91FF90EF90DF90CF900895643008F004
:1027700063E09091E704691710F06FEF690FE62F9F
:10278000F0E0EC52FB4F9489890F80689ECECF9287
:10279000DF92EF92FF920F931F93CF93DF936B0122
:1027A000770FEE08FF08F7FE1EC0EC01E881F98103
:1027B0000190F081E02D6DE219958C014427552799
:1027C000BA014C195D096E097F092AE0CE01AAD031
:1027D000800F911FDF91CF911F910F91FF90EF908C
:1027E000DF90CF9008952AE0B701A601DF91CF9145
:1027F0001F910F91FF90EF90DF90CF9093C0CF92F9
:10280000DF92EF92FF92CF93DF93B091F30488238E
:1028100011F0AB2F01C0A0E08091F40490E0880F8C
:10282000991F8E579E4FC090F904D090FA04E09003
:10283000FB04F090FC0420E030E0FC01C591D49151
:10284000E881EB23A90160E070E0EA130CC02F5F80
:102850003F4F4C155D056E057F0578F33FEF2FEF79
:102860008FEF9FEF03C0322F252FCB01632F722FE5
:10287000DF91CF91FF90EF90DF90CF900895CF92AE
:10288000DF92EF92FF920F931F93CF93DF936C0130
:102890007A018B01C0E0D0E0CE15DF0581F0D801D0
:1028A0006D918D01D601ED91FC910190F081E02DAB
:1028B000C6011995892B11F02196EECF7E01C70133
:1028C000DF91CF911F910F91FF90EF90DF90CF900C
:1028D00008950E94451E6115710579F0FB01019074
:1028E0000020E9F73197AF01461B570BDC01ED9152
:1028F000FC910280F381E02D199480E090E008952E
:102900000F931F93CF93DF93EC01E5DF8C0163EC12
:1029100072E0CE01E0DF800F911FDF91CF911F9118
:102920000F9108958F929F92AF92BF92EF92FF9274
:102930000F931F93CF93DF93CDB7DEB7A1970FB659
:10294000F894DEBF0FBECDBF7C01FA01CB0119A206
:10295000223008F42AE08E010F5D1F4F822E912C49
:10296000A12CB12CBF01A5019401DED7F901CA0148
:10297000015011096A3014F4605D01C0695CD8012E
:102980006C93232B242B252B69F7B801C701A3DFF8
:10299000A1960FB6F894DEBF0FBECDBFDF91CF91E9
:1029A0001F910F91FF90EF90BF90AF909F908F90ED
:1029B0000895CF92DF92EF92FF920F931F93CF93E0
:1029C000DF93CDB7DEB7C054D1400FB6F894DEBF69
:1029D0000FBECDBF59DA0091F5041091F604209195
:1029E000F7043091F8046B017C01C01AD10AE20AA5
:1029F000F30A40EDC41647E0D406E104F10418F4EC
:102A00008091FD04B7C06093F5047093F604809341
:102A1000F7049093F8041092F0041092EF041092CF
:102A2000EE041092ED041092EC0462E08091F10447
:102A3000B7D961E070E080E090E0EED961E080918C
:102A4000F104AED960E08091F10419D98091F204CB
:102A50008551823028F48BE291E10197F1F705C0AE
:102A600064E170E080E090E0D7D962E08091F10409
:102A700097D98BE990E00197F1F7F89480E0BFDEF9
:102A80006F3F7F4F8F4F9F4F21F41092FD0478943A
:102A90003EC081E0B4DE6F3F7F4F8F4F9F4FA9F361
:102AA0008E010F5F1F4F6E012FEBC21A2EEFD20A5D
:102AB000780180E0A4DEF7016083718382839383D1
:102AC00081E09DDEF7016483758386839783F8E058
:102AD000EF0EF11CEC14FD0461F7789420E030E077
:102AE000F801C080D180E280F38044815581668105
:102AF0007781FFEFCF16DF06EF06FF0631F04F3F7D
:102B00008FEF58076807780721F41092FD0480E0E2
:102B100031C0F90183E0F595E7958A95E1F7E45135
:102B2000FB4F8081880FC416D506E606F70608F429
:102B3000816080832F5F3F4F085F1F4F2832310530
:102B400079F62091F00430E04091EC048091ED049E
:102B500090E0840F911D4091EE04840F911D4091EF
:102B6000EF04840F911D99272817390771F681E02A
:102B70008093FD04C05CDE4F0FB6F894DEBF0FBE3D
:102B8000CDBFDF91CF911F910F91FF90EF90DF901C
:102B9000CF9008954F925F926F927F928F929F9203
:102BA000AF92BF92CF92DF92EF92FF920F931F935B
:102BB000CF93DF93CDB7DEB763970FB6F894DEBF40
:102BC0000FBECDBF7C015B013A01FB0120E080E03C
:102BD00090E06AE03191332309F140ED430F4A3030
:102BE00080F4689FA001699F500D1124CA01C0970D
:102BF000830F911D37FD9A958F3F910559F350F33F
:102C000013C03E3289F4233079F0D301A20FB11DF5
:102C100012968C932F5F80E090E0DCCF233021F47C
:102C2000F301858381E020C0F701428153816481F3
:102C300075818091CA049091CB04A091CC04B0918D
:102C4000CD04481759076A077B0709F48CC11CD9C2
:102C50008701085F1F4F6F7077277C5FC8010E9454
:102C6000080A813019F080E090E0D5C18AE692E050
:102C70009A838983F70182819381A481B5818B83B3
:102C80009C83AD83BE8345E350E0BE016F5F7F4F01
:102C9000C8010E94A50A892B19F4C12CD12C5EC150
:102CA000F3D8F7017783668342E050E0B7016A5FAB
:102CB0007F4FC8010E94240A81E090E09A838983B3
:102CC00042E050E0BE016F5F7F4FC8010E94240ABE
:102CD00080E091E09A83898342E050E0BE016F5F1B
:102CE0007F4FC8010E94240A1A82198242E050E0F4
:102CF000BE016F5F7F4FC8010E94240A42E050E08E
:102D0000BE016F5F7F4FC8010E94240A42E050E07D
:102D1000BE016F5F7F4FC8010E94240A4501F50183
:102D20008081882301F164015601F60181912F0110
:102D3000882321F08E3211F06201F6CFC818D9082D
:102D40001C141D0474F4CD8641E050E0BE01635FA5
:102D50007F4FC8010E94240AA601B401C8010E9445
:102D6000240A4201DCCF1D8641E050E0BE01635FD2
:102D70007F4FC8010E94240AC12CDD24D394DA823B
:102D8000C98242E050E0BE016F5F7F4FC8010E94E0
:102D9000240ADA82C98242E050E0BE016F5F7F4FB1
:102DA000C8010E94240AC8010E94690A892B09F4FB
:102DB00074CFE3E0AE2EB12C230122E0420E511C71
:102DC00063D83B014C01C8010E945F061816190622
:102DD00094F05AD8DC01CB0186199709A809B909E2
:102DE00089389341A105B105C8F462E370E080E041
:102DF00090E012D8E8CFF701428153816481758158
:102E0000808D918DA28DB38D481759076A077B0776
:102E100049F4848D958DC59729F409C0CC24CA94B2
:102E2000DC2C93C05EEFC52EDD24DA948EC0F70152
:102E300081A192A10C970CF4E9C04CE050E0BE01D6
:102E40006F5F7F4FC8010E9419068B819C81982774
:102E5000892798279A8B898BF70146815781298189
:102E60003A814217530709F0C2C097FFC0C08F7064
:102E70009270892B09F0C0C06F8078847624672413
:102E800076246114710409F4BCC0C12CD12C8D814D
:102E90009E81982789279827C816D90608F466C006
:102EA000812C912C41E050E0BE016D5E7F4FC80146
:102EB0000E9419064B89842F807C09F076C0442338
:102EC00031F050E060E070E0C8010E9419068B8983
:102ED0008111E8CF42E050E0BE01615F7F4FC80141
:102EE0000E94190642E050E0BE01635F7F4FC801B7
:102EF0000E94190644E050E060E070E0C8010E94C2
:102F0000190642E050E0BE016F5E7F4FC8010E948B
:102F100019068F85988949895A898115914009F048
:102F20004DC0CD84DE84DC24CD24DC2481E0C816B1
:102F3000D10409F043C04115544009F053C044E0A6
:102F400050E0B201C8010E94190621E0A21AB1089E
:102F500029F0FFEFCF16DF0609F432CFC8010E9437
:102F60004E07C60158C08EEF9FEF55C041E050E0BC
:102F7000BE01635F7F4FC8010E9419064D8544233F
:102F800031F050E060E070E0C8010E9419068D85C4
:102F90008111ECCF44E050E060E070E0C8010E9495
:102FA0001906FFEFCF1ADF0A72CF41E050E060E070
:102FB00070E0C8010E9419061B8A89CF5427452753
:102FC000542760E070E0C8010E941906FFEF8F1AD5
:102FD0009F0A6814790409F065CF96EFC92EDD24A5
:102FE000DA94B3CF77EFC72EDD24DA94AECF4CEF6F
:102FF000C42EDD24DA94A9CF3BEFC32EDD24DA946E
:10300000A4CF2AEFC22EDD24DA949FCF8DEFC82EF5
:10301000DD24DA949ACF63960FB6F894DEBF0FBE24
:10302000CDBFDF91CF911F910F91FF90EF90DF9077
:10303000CF90BF90AF909F908F907F906F905F9058
:103040004F900895FC018AE692E09183808312827A
:103050001382148215821386128648EE53E060E0D4
:1030600070E044875587668777872DE932E031879E
:103070002087978B868B108E118E128E138E88E090
:1030800080A308958F929F92AF92BF92CF92DF92CA
:10309000EF92FF920F931F93CF93DF93CDB7DEB7DD
:1030A00060970FB6F894DEBF0FBECDBF7C01909144
:1030B0007C05992309F4BCC0933311F008E001C0EA
:1030C00004E05B01CE0101969ADA89819A810E941F
:1030D00012049E012F5F3F4F6901490110E0812FCB
:1030E0000E941003F40181934F018823C9F01F5FF0
:1030F0000113F5CF10E0F60181916F018D3159F088
:10310000883149F08A51823030F01F5F0113F3CFCC
:103110000E9411048DC060E170E0812F0E941710A1
:10312000C12ED12CF601EE0FFF1FE459FA4F118288
:10313000108283EE93E00197F1F742E860E070E0DF
:10314000812F0E94B9024FEF62E070E0812F0E9450
:10315000B902A114B10411F0B50113C080910602A7
:103160009091070201968115F0EC9F0710F480E022
:1031700090EC909307028093060260910602709192
:103180000702812F0E94A40286E0E3E9F2E0DE015B
:10319000199601900D928A95E1F7F70183818F7757
:1031A0008C8784818D8785818E87A7014E5F5F4FD5
:1031B00024E030E06CE070E0812F0E947D02B501D8
:1031C000812F0E948F0226E030E0AE01475F5F4F03
:1031D00066E070E0812F0E947D0261E070E0812F47
:1031E0000E94171027E02C9DC0012D9D900D1124E9
:1031F0009C012C5C3A4F7901F9011182108222E086
:1032000030E0AE01415F5F4F68E270E0812F0E94C5
:1032100013038F859889982789279827F701938327
:1032200082831682158214820E941104812F01C0AC
:1032300088E060960FB6F894DEBF0FBECDBFDF9179
:10324000CF911F910F91FF90EF90DF90CF90BF90A3
:10325000AF909F908F900895E5E2F4E01382128280
:1032600088EE93E0A0E0B0E084839583A683B783E3
:103270008CE492E09183808385EC90E0958784874D
:1032800084EC90E09787868780EC90E0918B808B30
:1032900081EC90E0938B828B82EC90E0958B848B19
:1032A00086EC90E0978B868B118E128E138E148E87
:1032B000E4E0F5E08AE692E0918380831282138253
:1032C00014821582EAE0F5E09183808312821382F2
:1032D00014821582E0E1F5E09183808312821382EB
:1032E00014821582E6E1F5E09183808312821382D5
:1032F00014821582ECE1F5E09183808312821382BF
:1033000014821582E2E2F5E09183808312821382B7
:1033100014821582E2ECF4E091838083128213829E
:1033200014821582E8ECF4E0918380831282138288
:1033300014821582E8E2F5E0918380831282138281
:1033400014821582EEE2F5E091838083128213826B
:1033500014821582EEEFF4E09183808380EC828307
:1033600088EA838384E6848388EC8583ACEEB4E0CA
:103370008EE115968C9315978BE016968C93169785
:10338000E0E0F2E0E4911796EC931797EAEBF1E0B6
:10339000E4911896EC93189740E85EE360E070E0E3
:1033A0001D964D935D936D937C935097E4EDF4E0FF
:1033B000138212828EE592E09183808382E284837D
:1033C0008FEF858384E2868386E287838EE280871F
:1033D0008AE281878CE28287138614861586168698
:1033E000178661E080E176D8EEECF4E01382128279
:1033F00086E792E09183808380E590E095838483E3
:103400000895CF93DF93CDB7DEB761970FB6F894E9
:10341000DEBF0FBECDBF789484B5826084BD84B515
:10342000816084BD85B5826085BD85B5816085BDBF
:1034300080916E00816080936E0010928100809177
:1034400081008260809381008091810081608093FF
:103450008100809180008160809380008091B10024
:1034600084608093B1008091B00081608093B0004F
:1034700080919100826080939100809191008160A1
:103480008093910080919000816080939000809162
:10349000A10082608093A1008091A100816080934F
:1034A000A1008091A00081608093A0008091210103
:1034B00082608093210180912101816080932101AC
:1034C0008091200181608093200180917A00846046
:1034D00080937A0080917A00826080937A00809154
:1034E0007A00816080937A0080917A00806880936E
:1034F0007A001092C10062E08091F1040E94D00E27
:103500000E94440FDC01CB01805D9740A109B10905
:103510008093F5049093F604A093F704B093F80415
:1035200064E084E10E946A1260E080E01FD966ECEA
:1035300072E084ED94E0CFD961E080E017D964EDCA
:1035400072E084ED94E0C7D9E0913504F09136043F
:1035500082E08083E0913104F09132041082E091A6
:103560003304F09134048FEC808310923D04E09199
:103570003904F0913A0486E08083E0913704F091B9
:103580003804808180618083E0913704F0913804B1
:10359000808188608083E0913704F09138048081D5
:1035A00080688083E0913704F091380480818F7DBA
:1035B000808362EE72E085E294E0A2D98AE692E02E
:1035C0009A8389838091000590910105A09102055D
:1035D000B09103058B839C83AD83BE83CE0101969E
:1035E00014D8E0917C05E353E53030F4F0E0E25785
:1035F000FD4F808181110CC06DEF72E085E294E097
:103600007FD961E070E080E090E00E940C0FF9CF7C
:1036100080912404882339F080917C05843341F023
:103620008733C1F028C00E946C118111F5CF23C0EF
:10363000CE0101960E94FF1289819A810E94120494
:1036400085E390E00E94D702182F0E94110415FF15
:1036500064C111C0CE0101960E94FF1289819A8136
:103660000E9412048EE290E00E94D702182F0E945E
:10367000110410FF52C18EEC94E00E94EC0A63E446
:1036800073E085E294E027D98AE692E09A83898301
:103690001B821C821D821E82CE0140960E94FF1258
:1036A000888999890E94120444E050E0BE016D5F50
:1036B0007F4F8FE090E00E9427100E94110465E286
:1036C00074E0CE0101960E94980D63EC72E085E2F1
:1036D00094E001D96ED9882309F43AC08091F204AC
:1036E0008B30B0F18D30B0F08551823088F510917B
:1036F000EE04612F6F7770E0762F66278091EF04DC
:10370000682B80E090E0C8D12DEC3CEC4CEC5DE304
:1037100051D21AC01091EE046091EF046F7070E006
:1037200080E090E0BBD12DEC3CEC4CEC5DE342D270
:103730006B017C01612F70E080E090E0ADD19B01D6
:10374000AC01C701B60113D117FF06C0905804C0E1
:1037500060E070E080EC9FE76ED16B017C0129D9BD
:10376000882391F18091F2048B3070F18D3098F0C4
:103770008551823048F56091EC047091ED04762714
:103780006727762780E090E087D12DEC3CEC4CEC6D
:103790005DE310D21DC06091ED0470E080E090E028
:1037A0007DD12DEC3CEC4CEC5DE304D24B015C0193
:1037B0006091EC0470E080E090E070D19B01AC017E
:1037C000C501B401D4D004C060E070E080EC9FE794
:1037D00032D14B015C0160E08DE00E94B613B6016E
:1037E00084ED94E00E94C7136FED84ED94E00E9495
:1037F000121061E573E084ED94E06DD861E08DE036
:103800000E94B613B40184ED94E00E94C71363E5EF
:1038100073E084ED94E05FD86EEC74E0CE01019625
:103820000E949E078D85883008F074C065E573E0BE
:1038300085E294E065D811E0CE0101960E947B08F4
:10384000882309F457C0CE0101960E944305892BB5
:1038500099F3CE0101960E94B906082F682F85E2E0
:1038600094E00E94B40C0A3009F03FC0112319F310
:1038700060E673E0CE01019643D860E773E0CE01C5
:1038800001963ED86FE873E0CE01019639D86EEA12
:1038900073E0CE01019634D860EC73E0CE0101965E
:1038A0002FD863EC72E0CE01019615D86BEC73E073
:1038B000CE01019610D8B601CE0101960E94C71321
:1038C00065ED73E0CE0101961BD867ED73E0CE0184
:1038D000019601D8B401CE0101960E94C7136FED85
:1038E00073E0CE0101960CD805C00D3009F4A4CFC9
:1038F00010E0A2CF61E070E080E090E00E940C0F49
:10390000CE0101960E949D0861EE73E085E294E08D
:103910000E9480140E94210DDDCE65EF73E085E2E8
:1039200094E00E948014A7CEA1E21A2EAA1BBB1B12
:10393000FD010DC0AA1FBB1FEE1FFF1FA217B3077B
:10394000E407F50720F0A21BB30BE40BF50B661F91
:10395000771F881F991F1A9469F760957095809555
:1039600090959B01AC01BD01CF0108955058BB2734
:10397000AA270ED0E5C0D6D030F0DBD020F031F44D
:103980009F3F11F41EF4CBC00EF4E095E7FBC1C0DD
:10399000E92FE7D080F3BA1762077307840795070A
:1039A00018F071F49EF5FFC00EF4E0950B2EBA2FBF
:1039B000A02D0B01B90190010C01CA01A001112435
:1039C000FF27591B99F0593F50F4503E68F11A16E1
:1039D000F040A22F232F342F4427585FF3CF469572
:1039E00037952795A795F0405395C9F77EF41F1694
:1039F000BA0B620B730B840BBAF09150A1F0FF0F5E
:103A0000BB1F661F771F881FC2F70EC0BA0F621F49
:103A1000731F841F48F4879577956795B795F79539
:103A20009E3F08F0B3CF9395880F08F09927EE0FCB
:103A300097958795089504D06894B111B5C00895FD
:103A400098D088F09F5790F0B92F9927B751A0F0E0
:103A5000D1F0660F771F881F991F1AF0BA95C9F722
:103A600012C0B13081F09FD0B1E008959CC0672FA3
:103A7000782F8827B85F39F0B93FCCF386957795D2
:103A80006795B395D9F73EF49095809570956195BB
:103A90007F4F8F4F9F4F0895E89409C097FB3EF4E6
:103AA00090958095709561957F4F8F4F9F4F99238B
:103AB000A9F0F92F96E9BB279395F6958795779509
:103AC0006795B795F111F8CFFAF4BB0F11F460FFC9
:103AD0001BC06F5F7F4F8F4F9F4F16C0882311F021
:103AE00096E911C0772321F09EE8872F762F05C035
:103AF000662371F096E8862F70E060E02AF09A95D0
:103B0000660F771F881FDAF7880F9695879597F9C4
:103B1000089597F99F6780E870E060E008959FEF4F
:103B200080EC089500240A94161617061806090654
:103B3000089500240A941216130614060506089523
:103B4000092E0394000C11F4882352F0BB0F40F4AB
:103B5000BF2B11F460FF04C06F5F7F4F8F4F9F4FEB
:103B6000089557FD9058440F551F59F05F3F71F06D
:103B70004795880F97FB991F61F09F3F79F08795D4
:103B80000895121613061406551FF2CF4695F1DF5D
:103B900008C0161617061806991FF1CF86957105ED
:103BA000610508940895E894BB2766277727CB0121
:103BB00097F908950BD0C4CFB5DF28F0BADF18F01D
:103BC000952309F0A6CFABCF1124EECFCADFA0F327
:103BD000959FD1F3950F50E0551F629FF001729FA2
:103BE000BB27F00DB11D639FAA27F00DB11DAA1FC1
:103BF000649F6627B00DA11D661F829F2227B00D0E
:103C0000A11D621F739FB00DA11D621F839FA00D98
:103C1000611D221F749F3327A00D611D231F849FE8
:103C2000600D211D822F762F6A2F11249F5750403F
:103C30008AF0E1F088234AF0EE0FFF1FBB1F661FDA
:103C4000771F881F91505040A9F79E3F510570F093
:103C500060CFAACF5F3FECF3983EDCF38695779573
:103C60006795B795F795E7959F5FC1F7FE2B880F8E
:103C7000911D9695879597F90895EE0FFF1F881F60
:103C80008BBF0790F691E02D199481E090E0F894B5
:103C900007C0DC0101C06D9341505040E0F708952A
:043CA000F894FFCFC6
:103CA400DEADBEEFFEED00C0000000009101A704F0
:103CB4003B04CF084305B906FD04C00BE208D20655
:103CC4009D087B08BA01B701B5018601AB01930BCE
:103CD4004F0B220BA7010000000069143F14E401FC
:103CE400E30169146914691400000000B40C3F1462
:103CF4004C0C000D7D0C5B0C6F0C000000001210CE
:103D04003F14E401E30100000000980D00000000EE
:103D140069140000000070012408E401E301EC0AC6
:103D240072070000000069143F14E401E30101027A
:103D340000000301005E00000000000000560124A2
:103D44000AE40155016C013706EF04080A0E074E18
:103D540007A50AE701690A5F061906DA01CA01C65E
:103D640001C2010D0A0054656D706572617475724B
:103D7400613A200020202020556D69646164653A11
:103D8400200045746865726E6574205765625365DA
:103D940072766572204578616D706C650045746853
:103DA40065726E657420736869656C6420776173ED
:103DB400206E6F7420666F756E642E2020536F72B0
:103DC40072792C2063616E27742072756E20776976
:103DD40074686F75742068617264776172652E20EF
:103DE4003A280073657276657220697320617420C5
:103DF40000430025006E657720636C69656E74006E
:103E0400485454502F312E3120323030204F4B0043
:103E1400436F6E74656E742D547970653A206170C9
:103E2400706C69636174696F6E2F6A736F6E0041A1
:103E340063636573732D436F6E74726F6C2D416C85
:103E44006C6F772D4F726967696E3A202A00436F51
:103E54006E6E656374696F6E3A20636C6F73650090
:103E6400526566726573683A2035007B2274656D0D
:103E740070223A20002C002268756D223A20007DC1
:103E840000636C69656E7420646973636F6E6E653C
:103E9400637465640045746865726E65742063615B
:103EA400626C65206973206E6F7420636F6E6E653B
:063EB400637465642E003A
:00000001FF
