:100000001CC100004BC1000049C1000047C10000F5
:1000100045C1000043C1000041C100003FC10000D4
:100020003DC100003BC1000039C1000037C10000E4
:1000300035C1000033C1000031C100002FC10000F4
:100040002DC100002BC1000029C1000027C1000004
:1000500025C1000023C1000021C100000C946215DD
:100060001DC100000C941B140C94F21317C1000066
:1000700015C1000013C1000011C100000FC1000034
:100080000DC100000BC1000009C1000007C1000044
:1000900005C1000003C1000001C10000FFC0000055
:1000A000FDC00000FBC00000F9C00000F7C0000068
:1000B000F5C00000F3C00000F1C00000EFC0000078
:1000C000EDC00000EBC00000E9C00000E7C0000088
:1000D000E5C00000E3C00000E1C00000DFC0000098
:1000E000DDC000004E08470876085508520823086E
:1000F0004208EA0780148314721476147A14BA142E
:1001000087148B149114951499149F14A314A71495
:10011000BA14AD14B114B514000021002400270056
:100120002A002D0030003300010100000401070106
:100130000A0100002200250028002B002E003100BB
:10014000340002010000050108010B0100000A0B48
:1001500002090C0D0E080703040100000000000056
:10016000000000000000000000000000000000008F
:10017000000000000000000012111000000000004C
:10018000000000000000000000000000000000006F
:100190000000000020002300260029002C002F0072
:1001A00032000001000003010601090105050505F3
:1001B000070508080808020202020A0A08080404DF
:1001C000040401010101010101010303030303030D
:1001D0000303040707070C0C0C0C0C0C0C0C02029C
:1001E000020206060606060606060B0B0B0B0B0B99
:1001F0000B0B010210202008081020401020408026
:1002000002010201080402010102040810204080DA
:100210008040201008040201800402018040201068
:1002200008040201080402010102040810204080B1
:100230000102040810204080202111241FBECFEFAE
:10024000D1E2DEBFCDBF00E00CBF14E0A0E0B2E021
:10025000E6E3F9E400E00BBF02C007900D92AA3A72
:10026000B107D9F726E0AAEAB4E001C01D92AF3E7B
:10027000B207E1F711E0CDE1D1E000E006C021973F
:100280000109802FFE010E946924CC31D10780E052
:100290000807A9F70E94421E0C949924B1CEFC01D4
:1002A000818D928D0895CF93DF931F92CDB7DEB7E6
:1002B0006983DC01ED91FC910280F381E02D41E046
:1002C00050E0BE016F5F7F4F19950F90DF91CF9186
:1002D0000895FC019485FB018485981303C081E097
:1002E000983008F080E00895CF93DF931F92CDB748
:1002F000DEB76983DC01ED91FC910280F381E02D92
:1003000041E050E0BE016F5F7F4F19950F90DF9184
:10031000CF910895FC01768765870895DC01ED9102
:10032000FC91068CF78DE02D199591E089270895B1
:10033000862F089581E08627089521E0FC018485B9
:10034000883008F020E0822F0895FC01848595858F
:100350000895FC0184899589089527EE32E0FC0117
:1003600031832083FB014089518962897389FC01B3
:1003700042835383648375830895DC01ED91FC917E
:10038000048CF58DE02D199480E00895FC01268100
:100390003781620F731F848195818617970738F024
:1003A0008281938177836683820F931F089580E013
:1003B00090E00895089580E090E00895CF93DF9352
:1003C000FC01808D883028F4EF010E94020D88E046
:1003D000888FDF91CF9108950F931F93CF93DF9371
:1003E000EC018B01888D883010F40E94020DB80159
:1003F00082E00E942311888F883030F41D870C879B
:100400001A8E198E81E001C080E0DF91CF911F919B
:100410000F9108950F931F93CF93DF93FC01848571
:10042000883068F4C52FD42F8F010E94260F0097C3
:1004300049F421E030E0F8013383228305C080E0F5
:1004400090E002C08D2F9C2FDF91CF911F910F91D3
:100450000895EF92FF920F931F93CF93DF937C0148
:1004600080910005833311F4D4E001C0D8E000EF9F
:1004700014E0C0E0F801219131918F01F7018481EE
:1004800095812817390729F0CF5FDC13F3CF80E07F
:1004900006C08C2F0E9407118431B1F781E0DF91F3
:1004A000CF911F910F91FF90EF900895CF93DF931D
:1004B000EC018C858830C8F40E940711843181F0EA
:1004C000882371F0883161F08C3161F4E881F98121
:1004D0000084F185E02DCE01199521E0892B19F4D6
:1004E00020E001C021E0822F01C080E0DF91CF91A8
:1004F0000895FC018485883010F40C94B30C80E0DE
:1005000090E00895CF92DF92EF92FF92CF93DF9326
:10051000EC018C85883038F50E94E70C0E94561556
:100520006B017C018C850E9407118823D1F061E06A
:1005300070E080E090E00E941E150E945615AB010D
:10054000BC014C195D096E097F098D859E85A0E06F
:10055000B0E0481759076A077B0720F38C850E9493
:10056000020D88E08C87DF91CF91FF90EF90DF90B4
:10057000CF900895CF93DF93EC018C85883060F4A1
:100580000E940711873111F08C3131F48C850E9463
:10059000FA0E8115984088F3DF91CF910895FC0100
:1005A0008485883010F40C94FA0E80E090E0089571
:1005B000CF93DF931F92CDB7DEB741E050E0BE018D
:1005C0006F5F7F4FFC0184850E94990F18161906F2
:1005D0001CF4898190E002C08FEF9FEF0F90DF91B4
:1005E000CF910895FC018485883010F40C94990F04
:1005F00080E090E00895CF93DF93FC0124852830BC
:1006000018F08FEF9FEF0EC0EC010190F081E02D0C
:100610000084F185E02D1995892B99F38C850E9432
:100620007A0C90E0DF91CF910895CF92DF92EF9214
:10063000FF920F931F93CF93DF93CDB7DEB7AF97A2
:100640000FB6F894DEBF0FBECDBF8C016B017A01EF
:10065000CE0101960E941F1C87EE92E09BA78AA7FD
:100660001CA61DA61EA61FA6D8011C968C9188301C
:1006700060F40E940711882321F0F80184850E940C
:10068000E70C88E0D8011C968C938091A10590918D
:10069000A205A091A305B091A4058EA39FA3A8A72E
:1006A000B9A78B839C83AD83BE8318861F82AE015E
:1006B000465D5F4FB601CE0101960E94C7190097B3
:1006C000C1F0D801ED91FC910684F785E02D87EE0D
:1006D00092E09DA38CA38CA59DA5AEA5BFA58EA3DE
:1006E0009FA3A8A7B9A7A701BE016C5D7F4FC80152
:1006F0001995AF960FB6F894DEBF0FBECDBFDF9150
:10070000CF911F910F91FF90EF90DF90CF900895C0
:10071000DF92EF92FF920F931F93CF93DF93EC0141
:10072000D62E8A8187FF1AC0E12CF12C00E010E060
:100730008A81982F9F7082958770989FC00111249D
:10074000E816F9066CF460E2888199810E947F13B3
:10075000080F191F8FEFE81AF80AEACF00E010E03F
:100760006D2D888199810E947F13AC0121E08AE080
:10077000D81220E09A8120FB97F99A83C801840F50
:10078000951FDF91CF911F910F91FF90EF90DF9018
:100790000895EF92FF920F931F93CF93DF937C0105
:1007A0008B01C0E0D0E0F80161918F01662329F050
:1007B000C701AEDFC80FD91FF6CFCE01DF91CF91B1
:1007C0001F910F91FF90EF900895FC0190819F7D04
:1007D0009B3599F40180F281E02D3281932F9F7037
:1007E0009F3039F09F5F292F2F70932F907F922B8E
:1007F000928360E273E0CF01CCCF80E090E0089577
:10080000FF920F931F93CF93DF938C01F62E8BE50E
:100810006817F9F086179CF0ACE26A1709F443C038
:10082000BAE36B17C1F1E2E26E134CC081E0D8016C
:1008300013968C93C801C9DFEC0162E23FC0FBE76D
:100840006F1739F08DE7681739F0ADE56A133AC0D4
:1008500003C0C801BADF1CC0D8018C918F7D8B35D5
:1008600019F4C0E0D0E015C0D8011196ED91FC91CB
:1008700012973281932F9F7039F0915F292F2F703B
:10088000932F907F922B928360E273E0CF0181DF00
:10089000EC016F2D13C06DE573E0D80111968D91B9
:1008A0009C91129705C06FE173E0F80181819281FC
:1008B000DF91CF911F910F91FF906BCFF801818154
:1008C000928109C0C80181DFEC016F2DD80111961A
:1008D0008D919C9112971CDF8C0F9D1FDF91CF9102
:1008E0001F910F91FF900895EF92FF921F93CF9366
:1008F000DF937C01162FFC01C081D1818B8188237D
:1009000051F0623219F488818C35A9F4612F898104
:100910009A81FEDE02C0CE0173DF1883F7012281C7
:100920003381820F931F93838283DF91CF911F9135
:10093000FF90EF9008951B82E9CFAF92BF92CF92C4
:10094000DF92EF92FF921F93CF93DF935C01FC0144
:10095000C081D1817B01C12CD12CF70111917F0184
:100960001123A1F08B81882351F0123219F4888170
:100970008C35E9F4612F89819A81CADE03C0612F29
:10098000CE013EDF1883C80ED91EE7CFF501828164
:100990009381C80ED91ED382C282DF91CF911F915D
:1009A000FF90EF90DF90CF90BF90AF9008951B82A3
:1009B000E1CF0F931F93CF93DF93CDB7DEB7669749
:1009C0000FB6F894DEBF0FBECDBF9C01CB011E8ACF
:1009D000FE0176960AE010E0B8010E945624805D80
:1009E0008293CB010097C1F7BF01C901A6DF6696CC
:1009F0000FB6F894DEBF0FBECDBFDF91CF911F9130
:100A00000F910895FF920F931F93CF93DF9361157A
:100A1000710541F462E373E0DF91CF911F910F9173
:100A2000FF908BCF8B01EC0162E2CE015DDFF8011C
:100A300061918F01662351F0E3E2F3E0F080FF2043
:100A4000A1F38181681751F03296F8CF62E2CE01AE
:100A5000DF91CF911F910F91FF9046CF6CE5CE01B2
:100A600043DF6F2DE2CF9F92AF92BF92CF92DF9282
:100A7000EF92FF920F931F93CF93DF93EC016B01E3
:100A800080910005811111C01B821A8288EE93E0CB
:100A9000A0E0B0E08C839D83AE83BF8384E592E0C9
:100AA0009983888388E08C8754C0833319F434E0B9
:100AB000932E02C028E0922E80EFE82E84E0F82EDC
:100AC00010E098E0B92EA12CD7012D913C91F601B0
:100AD0008481958128173907E9F4812F0E94071135
:100AE000082F873111F08C3149F4812F3CD7892BA5
:100AF00069F40C3179F4812F6AD70CC0843141F04C
:100B0000811108C0D7011D921C9204C0B12E02C0F1
:100B1000AA24A3941F5FB2E0EB0EF11C9112D4CF74
:100B2000A11008C0D601ED91FC910084F185E02D63
:100B3000C60119951B821A8288EE93E0A0E0B0E00E
:100B40008C839D83AE83BF8384E592E09983888301
:100B5000BC8688EE93E09E878D87CE01DF91CF9192
:100B60001F910F91FF90EF90DF90CF90BF90AF90CB
:100B70009F9008958F929F92AF92BF92CF92DF92F3
:100B8000EF92FF920F931F93CF93DF93CDB7DEB712
:100B90002F970FB6F894DEBF0FBECDBF2091000592
:100BA000222361F1233319F434E0E32E02C028E05C
:100BB000E22E8A015B016C01BC01CE01019653DF7C
:100BC00080EF882E84E0982EF12CF4012191319150
:100BD0004F01F601848195812817390751F48F2D33
:100BE0000E940711873129F4A801B5018F2D0E94B9
:100BF000260FF394EF10E9CFC80102C080E090E027
:100C00002F960FB6F894DEBF0FBECDBFDF91CF9108
:100C10001F910F91FF90EF90DF90CF90BF90AF901A
:100C20009F908F900895DA019091AD04E92FF0E044
:100C3000FE2FEE27E60FF71F90E0982F8827A901D7
:100C4000BD018E0F9F1F0C94451708958CBD9DBD4F
:100C50000895EF92FF921F93CF93DF931F921F92FD
:100C6000CDB7DEB77C01FC016481758181E20E9411
:100C70002311182F8830F8F4CE0101960E94701DC0
:100C800089819A81E3DF812F0E94F70E833189F4F5
:100C900062E070E0812F0E943517F7018481958111
:100CA000E12FF0E0EE0FFF1FE051FB4F91838083B7
:100CB00002C0812F8CD60F900F90DF91CF911F91A2
:100CC000FF90EF9008950F931F93CF93DF931F92A0
:100CD0001F92CDB7DEB7FC0124852830C0F48C010B
:100CE000CE0101960E94701D89819A81AFDF22E0BA
:100CF00030E0AE014F5F5F4F60E170E0F801848546
:100D000092DF89819A8198278927982702C080E0FD
:100D100090E00F900F90DF91CF911F910F91089568
:100D2000EF92FF920F931F93CF93DF9300D01F9208
:100D3000CDB7DEB78C017B01FB018485883050F094
:100D400087EE92E0F80191838083128213821482ED
:100D500015821EC0CE0101960E94701D89819A8164
:100D600075DF24E030E0AE014F5F5F4F6CE070E074
:100D7000F701848558DF87EE92E0F8019183808344
:100D800089819A81AB81BC8182839383A483B5835B
:100D9000C8010F900F900F900F90DF91CF911F918E
:100DA0000F91FF90EF9008950F931F93CF93DF93D0
:100DB0001F921F92CDB7DEB7FC0124852830C0F406
:100DC0008C01CE0101960E94701D89819A813EDFBF
:100DD00022E030E0AE014F5F5F4F64E070E0F80169
:100DE000848521DF89819A8198278927982702C0E5
:100DF00080E090E00F900F90DF91CF911F910F91C5
:100E00000895AF92BF92CF92DF92EF92FF920F932D
:100E10001F93CF93DF931F921F92CDB7DEB78C0144
:100E20006B015A01FC018485883050F40E9407113F
:100E3000882319F0F8018485CAD588E0F8018487F1
:100E4000F60182819381A481B5810097A105B10546
:100E500009F457C08F3F9F4FAF4FBF4F09F451C0A8
:100E600060E070E081E20E942311F82EF80184878F
:100E7000F7E0F81708F445C0CE0101960E94701DF6
:100E800089819A81E3DEA6014E5F5F4F24E030E066
:100E90006CE070E08F2D11D6B5018F2DE1D664E0A6
:100EA00070E08F2D0E9435170E9456156B017C0152
:100EB000F80184850E940711873131F18C3121F1CD
:100EC0008823F9F00E945615AB01BC014C195D094D
:100ED0006E097F09F80185859685A0E0B0E084174A
:100EE0009507A607B70738F061E070E080E090E072
:100EF0000E941E15DDCFF801848584D588E0F801B5
:100F0000848780E090E002C081E090E00F900F9035
:100F1000DF91CF911F910F91FF90EF90DF90CF90D5
:100F2000BF90AF9008950F931F93CF93DF938C01E1
:100F3000EB016BE7CE01D8DCF801028113810115CA
:100F40001105B1F0F80162817381CE015BDD6AE3C6
:100F5000CE01CADCBE01C801049611D0F80100819F
:100F600011810115110521F06CE2CE01BDDCE7CF46
:100F70006DE7CE01DF91CF911F910F91B5CC2F92EC
:100F80003F924F925F926F927F928F929F92AF9219
:100F9000BF92CF92DF92EF92FF920F931F93CF9366
:100FA000DF93CDB7DEB76C970FB6F894DEBF0FBEF8
:100FB000CDBFDC01ED91FC9111973197E830F1053F
:100FC00008F02AC21B018C018827EE58FF4F8F4F73
:100FD0000C946924FD0182809380A480B580A501D2
:100FE0009401C501B4010E940823882319F062E42A
:100FF00073E08AC020E030E0A901C501B4010E947D
:10100000082387FF07C06DE2C1016EDCB7FAB09418
:10101000B7F8B09420E030E0A901C501B4010E9406
:101020000823882309F473C0A5019401C501B40104
:101030000E94A422A50194010E940823811167C087
:1010400069E473E061C012960D911C9113976BE5F2
:10105000C1014ADCF801028113810115110571F00B
:10106000B101C80102968BDFD8010D911C910115C9
:10107000110521F06CE2C10137DCEFCF6DE5C10154
:1010800033DCCAC1FD01828193814DDFC5C1129657
:101090006D917C911397C101B5DCBEC1FD016281E8
:1010A000738132C06DE2C1011FDCD80112966D91CF
:1010B0007D918D919C9115971E8A8E010A5E1F4F1E
:1010C0002AE0C22ED12CE12CF12CA70196010E941E
:1010D0008122605DF80162938F01B901CA01611537
:1010E00071058105910589F7BF010EC0FD0182815F
:1010F0009381A481B581892B8A2B8B2B19F46CE306
:1011000073E002C067E373E0C10117DC85C120E82A
:1011100036E948E15BE4C501B4010E94EF2387FF93
:1011200045C100E210E0E5E0DE2E188E1F8A20E0C7
:1011300030E0A901C501B4010E94EF231816B4F5EF
:101140002CEA35EC47E257E3C501B4010E940823BD
:10115000181664F1BFEFDB1649F1ED2DF4E0EF0254
:1011600070011124F701E85FFD4FA5019401608132
:101170007181828193810E94EF2318169CF4F701FC
:10118000E85CFD4F2081318142815381C501B4016A
:101190000E94F3234B015C018F89988D801B910B7A
:1011A000988F8F8B15950795DA94D4CFC501B4012C
:1011B0000E9411236B017C012B013C0106E080E4BD
:1011C00092E4AFE0B0E0898F9A8FAB8FBC8F102F85
:1011D00001509AE04916510461047104C8F0698D08
:1011E0007A8D8B8D9C8D2AE030E040E050E00E94AB
:1011F0008122298F3A8F4B8F5C8FC301B2012AE085
:1012000030E040E050E00E94812229013A01DFCF26
:10121000C701B6010E943D239B01AC01C501B40189
:101220000E94A3224B015C01698D7A8D8B8D9C8D70
:101230000E943D239B01AC01C501B4010E94F32330
:101240002B013C010E9411234B015C010E943D23B4
:101250009B01AC01C301B2010E94A3229B01AC011E
:101260000E94A4220E941123860E971EA81EB91E5A
:10127000898D9A8DAB8DBC8D88169906AA06BB0602
:10128000F8F09FEFC91AD90AE90AF90AAF89B88DAF
:10129000AB2B99F0BAE0CB16D104E104F10468F06D
:1012A000EF89F88D3196F88FEF8B812C912C5401BA
:1012B000C12CD12C7601C39403C0812C912C5401F4
:1012C0005AE0452E512C612C712CC501B401A301AB
:1012D00092010E948122672B682B692B31F4111631
:1012E00024F449015A011150F0CF1E8ACE014696CE
:1012F0009A8F898F4AE0442E512C612C712CC701A2
:10130000B601A30192010E948122605DA98DBA8D70
:101310006E93BA8FA98F69017A01C114D104E104D7
:10132000F10469F7BD01C10108DB112321F1188A1D
:10133000012F6E01B0E1CB0ED11C76013AE0432EB5
:10134000512C612C712C015068F0C501B401A3012E
:1013500092010E948122605DF60162936F01490152
:101360005A01F1CFB701611B71098EE2DB018E9347
:10137000BD01C101E2DAEF89F88DF7FF0AC066E42A
:1013800073E0C101DADA6F89788D71956195710921
:101390000AC08F89988D892B09F43EC065E6C1018A
:1013A000A3DA6F89788DC10104DB36C080E5C82ED1
:1013B00082E0D82E90E2E92E92E0F92E00E210E0D1
:1013C000188E1F8AA5019401D6019E918E917E915F
:1013D0006E916D010E94082318168CF0F701248984
:1013E000358946895789C501B4010E94F3234B0111
:1013F0005C018F89988D800F911F988F8F8B159529
:10140000079594E0E91AF108A8E3CA16A2E0DA0603
:10141000C9F6DD24DA948BCE6C960FB6F894DEBF55
:101420000FBECDBFDF91CF911F910F91FF90EF9035
:10143000DF90CF90BF90AF909F908F907F906F90F4
:101440005F904F903F902F900895CF92DF92EF9250
:10145000FF920F931F93CF93DF936115710511F4E2
:1014600080E065C06A017B018C01DC011296CD91A0
:10147000DC911397209761F16A817B816115710579
:1014800029F0C7010E949024892B21F00990D8816E
:10149000C02DF0CFFE01E6018881998197FD07C03C
:1014A000092E000CAA0BBB0B24E030E009C091957B
:1014B00081959109092E000CAA0BBB0B25E030E0A9
:1014C0003583248386839783A087B18781E02FC0EB
:1014D000F80180819181009789F0EC01E881F98120
:1014E0000190F081E02D6AE070E01995FC01892BF4
:1014F00039F0118210821582148202C0E0E0F0E01F
:10150000E801AA81BB81109751F08D919C911197B0
:10151000009711F0DC01F9CFED93FC9302C0FB833F
:10152000EA83309709F49CCFF382E282B4CFDF9153
:10153000CF911F910F91FF90EF90DF90CF90089582
:101540002091000590E0233311F40C9601C04896D9
:10155000982F990F990F990F80E008950895CF93D0
:10156000DF931F92CDB7DEB76983DC01ED91FC916B
:101570000280F381E02D41E050E0BE016F5F7F4FBC
:1015800019950F90DF91CF910895EF92FF921F93DD
:10159000CF93DF931F921F92CDB7DEB7182F22E0B3
:1015A00030E0AE014F5F5F4F60E270E03CDBE9800E
:1015B000FA80FE24EF24FE2422E030E0AE014F5FEB
:1015C0005F4F60E270E0812F2EDB89819A8198273E
:1015D00089279827E816F90611F07C01EDCF87E0FE
:1015E000189FF0011124E854FB4FF582E482C701F3
:1015F0000F900F90DF91CF911F91FF90EF90089582
:10160000FF920F931F93CF93DF931F921F92CDB73B
:10161000DEB7F82E22E030E0AE014F5F5F4F66E2AA
:1016200070E001DB09811A8110270127102722E0D1
:1016300030E0AE014F5F5F4F66E270E08F2DF3DA6E
:1016400089819A819827892798270817190711F007
:101650008C01EDCFC8010F900F90DF91CF911F91BA
:101660000F91FF900895AF92BF92CF92DF92EF92C9
:10167000FF920F931F93CF93DF93CDB7DEB7AF9752
:101680000FB6F894DEBF0FBECDBF8C015B016A01BF
:10169000CE0101960E941F1C87EEE82E82E0F82EF4
:1016A000FBA6EAA61CA61DA61EA61FA68091A10544
:1016B0009091A205A091A305B091A4058EA39FA32C
:1016C000A8A7B9A78B839C83AD83BE8318861F828E
:1016D000AE01465D5F4FB501CE0101960E94C7196C
:1016E00081309105B1F4D801ED91FC910488F58920
:1016F000E02DFDA2ECA28CA59DA5AEA5BFA58EA355
:101700009FA3A8A7B9A7A601BE016C5D7F4FC80122
:101710001995AF960FB6F894DEBF0FBECDBFDF911F
:10172000CF911F910F91FF90EF90DF90CF90BF90DE
:10173000AF900895E091AB04F091AC04908180915A
:10174000AA04892B80830895E091AB04F091AC0446
:1017500090818091AA0480958923808308958EBD0D
:1017600000000DB407FEFDCF8EB50895AF92BF9275
:10177000CF92DF92EF92FF920F931F93CF93DF935D
:10178000CDB7DEB728970FB6F894DEBF0FBECDBF3A
:101790008C017B016A01809100058333B1F458010B
:1017A000A40EB51E0A151B0509F480C0CDDF80EF1D
:1017B000D6DF812FD4DF802FD2DF0F5F1F4FF701DD
:1017C00081917F01CCDFB6DFEDCF843309F5BCDF3B
:1017D00019830A838D2D80688B83CC8264E070E04E
:1017E000CE0101960E941B1787010C0D1D1DE016EE
:1017F000F10661F0F70181917F01B1DFF8CFB60109
:101800006D5F7F4FCE0101960E941B1793DF4EC084
:101810009BDF0F3F110509F020F419820A8384E051
:101820001CC017FD0BC019820A8333E0169507957B
:101830003A95E1F7007E0C600B8310C0C80126E0EA
:10184000969587952A95E1F719830A83807E01157D
:10185000104C10F4846101C08C618B8326E0C216A9
:10186000D10498F420E0822F90E08C159D0538F685
:10187000E4E0F0E0EC0FFD1FE80FF91FD701A80F1F
:10188000B91F8C9180832F5FEECF63E070E0CE01B3
:1018900001960E941B1787010C0D1D1DF7018191F8
:1018A0007F015DDFE016F106C9F7B0CFC6012896CB
:1018B0000FB6F894DEBF0FBECDBFDF91CF911F9161
:1018C0000F91FF90EF90DF90CF90BF90AF90089571
:1018D000CF93DF931F92CDB7DEB7898341E050E00D
:1018E000BE016F5F7F4F80E090E040DF0F90DF919F
:1018F000CF9108951F93CF93DF931F921F92CDB77F
:10190000DEB7182FCE0101960E94701D89819A8141
:101910009DD9812F15DE27E0129FF0011124E85494
:10192000FB4F22813381377041E050E0BE016F5F91
:101930007F4F820F931F0E94451787D989810F908F
:101940000F90DF91CF911F910895FC01808D883019
:1019500038F4218D328D232B19F0CCDF90E00895DF
:101960008FEF9FEF0895EF92FF920F931F93CF9306
:10197000DF931F921F92CDB7DEB7482F87E0489FB5
:1019800090011124F901E854FB4F7F01808191817E
:101990000097A1F4142FCE0101960E94701D898139
:1019A0009A8154D9812F2CDE8C014FD9F701868181
:1019B0009801281B3109C901318320830F900F90B2
:1019C000DF91CF911F910F91FF90EF9008951F939A
:1019D000CF93DF931F921F92CDB7DEB7182FCE01A2
:1019E00001960E94701D89819A8130D968E070E06B
:1019F000812F0E94351729D90F900F90DF91CF9139
:101A00001F9108951F93CF93DF931F921F92CDB71D
:101A1000DEB7182FCE0101960E94701D89819A8130
:101A200015D960E170E0812F0E9435170ED90F9013
:101A30000F90DF91CF911F910895CF92DF92EF9297
:101A4000FF920F931F93CF93DF9300D000D0CDB7B9
:101A5000DEB78C016B017A01FC01808D883008F4BF
:101A6000D1DF87EE92E09A838983F60182819381A8
:101A7000A481B5818B839C83AD83BE83B701CE01E6
:101A800001960E943F1CF801808F883030F4F58663
:101A9000E486128E118E81E001C080E026960FB69A
:101AA000F894DEBF0FBECDBFDF91CF911F910F9194
:101AB000FF90EF90DF90CF900895DA019091AD0400
:101AC000E92FF0E0FE2FEE27E60FF71F90E0982FAA
:101AD0008827A901BD018E0F9F1F48CE7F928F924C
:101AE0009F92AF92BF92CF92DF92EF92FF920F93AD
:101AF0001F93CF93DF931F921F92CDB7DEB7782E3F
:101B00008B014A01590122E030E0AE014F5F5F4F87
:101B100064E270E088D8E980FA80FE24EF24FE2495
:101B2000E00EF11E9701377040910005072D10E07F
:101B3000C801433311F4089601C04096982F8827B6
:101B4000990F990F990F820F931F473319F4A5012D
:101B5000B4011FC0A9014A0D5B1D41305840B8F3C4
:101B600060E078E06B01C21AD30AA601B401FEDD81
:101B7000A5014C195D09B4016C0D7D1D8091000516
:101B8000833329F5085F1F4F902F990F990F990FF5
:101B900080E0ECDDEA0CFB1CF982EA8222E030E016
:101BA000AE014F5F5F4F64E270E0872D86DF0F90DC
:101BB0000F90DF91CF911F910F91FF90EF90DF90E9
:101BC000CF90BF90AF909F908F907F900895005FCF
:101BD0001F4FDACF7F928F929F92AF92BF92CF9298
:101BE000DF92EF92FF920F931F93CF93DF931F9299
:101BF0001F92CDB7DEB77C014B01742EC52EFC01C0
:101C0000A688B788D08CCE0101960E94701D89816C
:101C10009A811CD88D2DB9DC072D1C2D80179107BA
:101C200008F48C019801A401B5018D2D57DF0DD862
:101C3000F70186899789800F911F978B868BC80142
:101C40000F900F90DF91CF911F910F91FF90EF9028
:101C5000DF90CF90BF90AF909F908F907F9008952E
:101C6000CF93DF931F921F92CDB7DEB779836A833C
:101C700022E030E0AE014F5F5F4F60E170E01DDFBA
:101C80000F900F90DF91CF910895CF93DF931F9224
:101C90001F92CDB7DEB779836A8322E030E0AE01D0
:101CA0004F5F5F4F64E070E008DF0F900F90DF91AF
:101CB000CF910895DF92EF92FF920F931F93CF93EE
:101CC000DF931F921F92CDB7DEB7FB01DC01579661
:101CD0001C921E9256972281211109C02381211145
:101CE00006C02481211103C025812223F9F041156A
:101CF0005105E1F07A018F01FC01D08CCE010196F3
:101D00000E94701D89819A810E942606A8014E5F5B
:101D10005F4F24E030E06CE070E08D2DCEDEB70147
:101D20008D2D9EDF0E94250681E001C080E090E0BD
:101D30000F900F90DF91CF911F910F91FF90EF9037
:101D4000DF900895CF93DF931F92CDB7DEB79091C8
:101D5000AD04292F30E0322F2227260F371F90E0C5
:101D6000982F8827498341E050E0BE016F5F7F4F85
:101D7000820F931FFBDC0F90DF91CF910895CF93DB
:101D8000DF931F92CDB7DEB741E050E0BE016F5F39
:101D90007F4F0E94451789810F90DF91CF91089561
:101DA00080E090E0ECCFCF93DF9380E891DDC4E159
:101DB000D0E0F6DF882349F061E070E080E090E059
:101DC0003DD62197B1F780E001C081E0DF91CF914E
:101DD00008959091AD04292F30E0322F2227260F4D
:101DE000371F90E0982F8827820F931FC8CF63E09A
:101DF00070E0EFCFFF920F931F93CF93DF931F926B
:101E00001F92CDB7DEB7F82ECE0101960E94701D4D
:101E100089819A810E9426068F2DB7DB8C018F2D38
:101E2000E6DFF82E0E94250687E1F81631F08CE1F6
:101E3000F81619F080E090E001C0C8010F900F90F3
:101E4000DF91CF911F910F91FF900895AF92BF92B4
:101E5000CF92DF92EF92FF920F931F93CF93DF9376
:101E60001F921F92CDB7DEB7F82E6B018A01413069
:101E7000584010F000E018E0CE0101960E94701D5D
:101E800089819A810E9426068F2D7FDB5C018F2D30
:101E9000AEDFE82E0E94250687E1E81619F08CE1F6
:101EA000E81204C0A016B10638F302C000E010E04A
:101EB000CE0101960E94701D89819A810E9426069A
:101EC0009801A60160E070E08F2D08DE60E270E00E
:101ED0008F2DCBD762E070E08F2D7BDF84FD14C0A7
:101EE0008F2D85DF811105C00E94250680E090E0DE
:101EF00013C00E942506CE0101960E94701D8981A3
:101F00009A810E942606E6CF40E162E070E08F2DC4
:101F100019DF0E942506C8010F900F90DF91CF9125
:101F20001F910F91FF90EF90DF90CF90BF90AF90F7
:101F300008954F925F927F928F929F92AF92BF923D
:101F4000CF92DF92EF92FF920F931F93CF93DF9385
:101F50001F921F92CDB7DEB7782E6B014A01A82ED3
:101F6000B12C27E0829FC0011124AC0148545B4F83
:101F70007A01FA0100811181CE0101960E94701D43
:101F800089819A810E942606081519054CF4872D2F
:101F900037DBF70126818C01021B110911830083B5
:101FA0000115110591F4872D22DF843109F47AC0DF
:101FB000882309F477C001E010E08C3111F400E0CF
:101FC00010E01195019511096DC0801691060CF471
:101FD000840187E08A9DF0018B9DF00D1124E85467
:101FE000FB4FE280F380C114D10439F12701F7E0FF
:101FF0005F22872DA5DA840D951D209100052733DA
:1020000019F4A801B60118C09801240D351D21301E
:102010003840B8F320E038E0490184189508A4015D
:10202000B60133D72601480C591C6801C818D908D5
:10203000872D86DAA601B20128D7E00EF11E87E0CF
:102040008A9DF0018B9DF00D1124E854FB4FF38223
:10205000E28280819181801B910B91838083268114
:10206000A801420F511D4A3F510510F4892BC9F4B4
:1020700087E08A9DF0018B9DF00D1124E854FB4F01
:102080001682F982EA8222E030E0AE014F5F5F4FB4
:1020900068E270E0872D11DD60E470E0872DE5D601
:1020A00001C046830E942506C8010F900F90DF9162
:1020B000CF911F910F91FF90EF90DF90CF90BF9045
:1020C000AF909F908F907F905F904F900895CF93A7
:1020D000DF93FC01218D328D2115310519F48FEF2D
:1020E0009FEF10C0EC014217530708F0A901888D3B
:1020F00020DF181619069CF7298D3A8D281B390BFD
:102100003A8F298FDF91CF9108950F931F93CF932B
:10211000DF931F92CDB7DEB7FC01218D328D232BCB
:1021200059F08C0141E050E0BE016F5F7F4F808D20
:1021300000DF181619061CF08FEF9FEF08C0F8019A
:10214000818D928D0197928F818F898190E00F9080
:10215000DF91CF911F910F9108950F931F93CF930C
:10216000DF93CDB7DEB728970FB6F894DEBF0FBE6A
:10217000CDBF8C01D80159964D915C915A9741156C
:10218000510551F0ED91FC91048CF58DE02D60E04E
:1021900070E0C8011995EECFF801808DE4DB892B42
:1021A00049F148E050E0BE016F5F7F4FD80158967B
:1021B0008C91BFDE18161906FCF4D801509684E005
:1021C000FE01319601900D928A95E1F78D8190E0A4
:1021D000982F88272E81820F911DF801958B848B73
:1021E0008F8190E0982F88272885820F911D928FEC
:1021F000818F02C080E090E028960FB6F894DEBF91
:102200000FBECDBFDF91CF911F910F9108951F9306
:10221000CF93DF931F921F92CDB7DEB7182FCE0159
:1022200001960E94701D89819A810E942606812F45
:10223000DEDD182F0E942506812F0F900F90DF9171
:10224000CF911F9108958F929F92BF92CF92DF926C
:10225000EF92FF920F931F93CF93DF93CDB7DEB72B
:102260002A970FB6F894DEBF0FBECDBF9091000540
:10227000992309F491C0933319F028E0B22E02C0DB
:1022800094E0B92E6B01082FCE0101960E94701DBB
:1022900089819A810E9426069E012F5F3F4F790116
:1022A000490110E0812FA3DDF40181934F018823C0
:1022B000C1F01F5FB112F6CF10E0F70191917F01DD
:1022C0009D3159F0983149F09A51923030F01F5FAA
:1022D000B112F3CF0E9425065FC060E170E0812F4C
:1022E000C4D5E12EF12CF701EE0FFF1FE051FB4F9B
:1022F0001182108283EE93E00197F1F7402F60E0A6
:1023000070E0812F1FDD4FEF62E070E0812F1ADD5A
:10231000C114D10411F0B60113C080910002909154
:10232000010201968115F0EC9F0710F480E090EC1B
:10233000909301028093000260910002709101026B
:10234000812FA3DC61E070E0812F8FD527E02E9DE7
:10235000C0012F9D900D11249C0128543B4F790101
:10236000F9011182108222E030E0AE01475F5F4F39
:1023700068E270E0812F0E94130689859A8598276C
:1023800089279827F7019383828316821582148206
:102390000E942506812F01C088E02A960FB6F89486
:1023A000DEBF0FBECDBFDF91CF911F910F91FF9088
:1023B000EF90DF90CF90BF909F908F9008951F93E4
:1023C000CF93DF931F921F92CDB7DEB7FC01108D24
:1023D000CE0101960E94701D89819A810E94260675
:1023E00060E270E0812F41D562E070E0812FF1DC86
:1023F00084FD1AC062E070E0812FEBDC83FF09C02E
:1024000048E162E070E0812F9DDC0E94250680E0BB
:1024100013C00E942506CE0101960E94701D89817D
:102420009A810E942606E0CF40E162E070E0812FB1
:1024300089DC0E94250681E090E00F900F90DF91EB
:10244000CF911F910895CF92DF92EF92FF920F9359
:102450001F93CF93DF936C017A018B01C0E0D0E032
:10246000CE15DF0581F0D8016D918D01D601ED917A
:10247000FC910190F081E02DC6011995892B11F096
:102480002196EECF7E01C701DF91CF911F910F9171
:10249000FF90EF90DF90CF900895FC01538D448D15
:1024A000252F30E0842F90E0821B930B541710F0FF
:1024B000CF96089501970895FC01918D828D98170C
:1024C00061F0828DDF01A80FB11D5D968C91928D18
:1024D0009F5F9F73928F90E008958FEF9FEF089515
:1024E000FC01918D828D981731F0828DE80FF11DDE
:1024F000858D90E008958FEF9FEF0895FC01918DF9
:10250000228D892F90E0805C9F4F821B91098F73F1
:102510009927089582E095E0F1DF21E0892B09F405
:1025200020E0822F0895FC01848DDF01A80FB11DEA
:10253000A35ABF4F2C91848D90E001968F739927F9
:10254000848FA689B7892C93A089B1898C918370D7
:1025500080648C93938D848D981306C00288F389D0
:10256000E02D80818F7D80830895EF92FF920F93FD
:102570001F93CF93DF93EC0181E0888F9B8D8C8D2F
:10258000981305C0E889F989808185FD25C0F62E5C
:102590000B8D10E00F5F1F4F0F731127E02E8C8DF6
:1025A000E8120BC00FB607FCFACFE889F9898081E1
:1025B00085FFF5CFCE01B7DFF2CF8B8DFE01E80F9F
:1025C000F11DE35AFF4FF0829FB7F8940B8FEA8911
:1025D000FB89808180620AC09FB7F894EE89FF89E9
:1025E0006083E889F98980818370806480839FBFDC
:1025F00081E090E0DF91CF911F910F91FF90EF90DC
:102600000895CF93DF93EC01888D8823C1F0EA8988
:10261000FB89808185FD05C0A889B9898C9186FDDB
:102620000EC00FB607FCF5CF808185FFF2CFA889D9
:10263000B9898C9185FFEDCFCE0175DFE8CFDF91B1
:10264000CF91089580E090E0892B19F063DF81112C
:1026500025C080E090E0892B41F080E090E0892B5C
:1026600021F00E94000081111CC080E090E0892BC5
:1026700041F080E090E0892B21F00E940000811160
:1026800013C080E090E0892BA1F080E090E0892BDE
:1026900081F00E94000081110AC008950E9400008C
:1026A000D8CF0E940000E1CF0E940000EACF0C9436
:1026B000000008953FB7F8948091B4049091B50458
:1026C000A091B604B091B70426B5A89B05C02F3FD2
:1026D00019F00196A11DB11D3FBFBA2FA92F982F48
:1026E0008827820F911DA11DB11DBC01CD0142E0C3
:1026F000660F771F881F991F4A95D1F70895DC014F
:10270000ED91FC910190F081E02D19948F929F92B0
:10271000AF92BF92CF92DF92EF92FF920F931F93EF
:10272000CF93DF937C018B016C0182E0C80ED11C3A
:102730004701E5E08E0E911CC0E0D0E0F60141912A
:102740006F0150E060E070E02AE0C8010E94281D9F
:102750005C016EE2C801D3DF8A0D9B1DC80FD91F33
:10276000C814D90459F7F701458150E060E070E0E2
:102770002AE0C8010E94281D8C0F9D1FDF91CF9178
:102780001F910F91FF90EF90DF90CF90BF90AF908F
:102790009F908F9008956115710579F0FB0101906C
:1027A0000020E9F73197AF01461B570BDC01ED9193
:1027B000FC910280F381E02D199480E090E008956F
:1027C0000F931F93CF93DF93EC01E5DF8C0160E261
:1027D00073E0CE01E0DF800F911FDF91CF911F9159
:1027E0000F9108951F920F920FB60F9211240BB6FE
:1027F0000F922F933F934F935F936F937F938F939A
:102800009F93AF93BF93EF93FF9382E095E08BDEAE
:10281000FF91EF91BF91AF919F918F917F916F91B8
:102820005F914F913F912F910F900BBE0F900FBE74
:102830000F901F9018951F920F920FB60F921124B0
:102840000BB60F922F938F939F93EF93FF93E0918B
:102850001205F09113058081E0911805F09119059A
:1028600082FD12C0908180911B058F5F8F73209134
:102870001C05821751F0E0911B05F0E0EE5FFA4F66
:10288000958F80931B0501C08081FF91EF919F91EF
:102890008F912F910F900BBE0F900FBE0F901F9036
:1028A0001895362F90E0FC01E45BFE4F4491FC014B
:1028B000EE50FE4F2491FC01E455FE4F9491992374
:1028C00009F46CC0442309F455C050E0FA01319773
:1028D000E231F10508F04EC08827E658FF4F8F4FD0
:1028E0000C946924809180008F7707C080918000CC
:1028F0008F7D03C080918000877F809380003AC0E5
:1029000084B58F7702C084B58F7D84BD33C080913C
:10291000B0008F7703C08091B0008F7D8093B000AE
:1029200029C0809190008F7707C0809190008F7DA3
:1029300003C080919000877F809390001BC080919E
:10294000A0008F7707C08091A0008F7D03C0809189
:10295000A000877F8093A0000DC0809120018F7719
:1029600007C0809120018F7D03C080912001877F67
:1029700080932001E92FF0E0EE0FFF1FEE5CFE4F89
:10298000A591B4919FB7F894311104C08C91209512
:10299000282302C0EC912E2B2C939FBF0895CF9338
:1029A000DF93EC0160E08E817CDF61E08E8179DF76
:1029B00060E08E8176DF8BE891E00197F1F7DF919F
:1029C000CF910895CF93DF9390E0FC01EE50FE4F3E
:1029D0002491FC01E455FE4F8491882361F190E03D
:1029E000880F991FFC01E85EFE4FC591D491FC0150
:1029F000EE5CFE4FA591B491611109C09FB7F894A8
:102A00008881209582238883EC912E230BC062302D
:102A100061F49FB7F8948881322F3095832388839F
:102A2000EC912E2B2C939FBF06C08FB7F894E881B2
:102A30002E2B28838FBFDF91CF9108958F929F9285
:102A4000AF92BF92CF92DF92EF92FF926B017C0127
:102A500031DE4B015C01C114D104E104F104E9F061
:102A600029DEDC01CB0188199909AA09BB09883E36
:102A70009340A105B10578F321E0C21AD108E1081D
:102A8000F10888EE880E83E0981EA11CB11CC114C9
:102A9000D104E104F10421F7DECFFF90EF90DF9045
:102AA000CF90BF90AF909F908F9008952FB7F894DC
:102AB0006091B0047091B1048091B2049091B3041C
:102AC0002FBF08951F920F920FB60F9211242F93CC
:102AD0003F938F939F93AF93BF938091B004909156
:102AE000B104A091B204B091B3043091AF0423E0DB
:102AF000230F2D3720F40196A11DB11D05C026E836
:102B0000230F0296A11DB11D2093AF048093B00442
:102B10009093B104A093B204B093B3048091B40431
:102B20009091B504A091B604B091B7040196A11D8F
:102B3000B11D8093B4049093B504A093B604B093F0
:102B4000B704BF91AF919F918F913F912F910F90BB
:102B50000FBE0F901F901895CF92DF92EF92FF92C9
:102B60000F931F93CF93DF936C017C0187E0E80EF6
:102B7000F11CC0E0D0E0062F10E0B8010C2E02C01E
:102B8000759567950A94E2F76170F70181917F016D
:102B900088DE2196C430D10581F7C601DF91CF913F
:102BA0001F910F91FF90EF90DF90CF90F8CECF92D2
:102BB000DF92EF92FF920F931F93CF93DF93EC017D
:102BC000F62E642F8C816DDE8D818F3F11F060E0D9
:102BD00068DE8F850F2D10E084FF23C06E0187E033
:102BE000C80ED11CE12CF12CB8010E2C02C0759539
:102BF00067950A94E2F76170F60181916F0151DEE9
:102C0000FFEFEF1AFF0A88E0E816F10469F7CE013A
:102C1000DF91CF911F910F91FF90EF90DF90CF90B8
:102C2000BECEB80184E0759567958A95E1F7CE012F
:102C300093DF6F2DCE01DF91CF911F910F91FF9008
:102C4000EF90DF90CF9088CF41E0B1DF81E090E05E
:102C500008951F93CF93DF9300D0CDB7DEB760E325
:102C600072E080E090E0EADE1FB7F8948091AE0455
:102C7000811123C0E1EEF1E08491E7E2F2E094916A
:102C8000E82FF0E0EE0FFF1FE85EFE4FA591B49134
:102C9000EC91E92319F461E085E303DE61E085E36B
:102CA00091DE8CB580618CBD8CB580648CBD61E09B
:102CB00084E388DE61E083E385DE8091AE048F5F8C
:102CC0008093AE041FBFE6EBF1E0E491F0E0EE0F7D
:102CD000FF1FEE5CFE4F859194919093AC0480931E
:102CE000AB04ECEFF1E0E491E093AA0461E08AE048
:102CF00069DE0E949A0BCE010196F2D689819A81F3
:102D00000E94260684E3809300054DD8882359F15C
:102D100088E00E94680C44D8883029F580E10E9440
:102D2000680C3ED88031F9F480E00E94680C38D8F5
:102D3000811119C08FE190E022D88330A1F480E4A2
:102D40008093AD0410E042E06EE170E0812F0E94BC
:102D5000A20E42E06FE170E0812F0E94A20E1F5F81
:102D6000183089F721C087E3809300051CD8882399
:102D700009F188E00E94680C13D88830D9F480E10A
:102D80000E94680C0DD8182F8031A1F480E00E94B9
:102D9000680C06D881110EC089E390E00E94BF0E36
:102DA000843041F41093AD040E94250681E08093A5
:102DB00001053AC083E3809300050E94D30E882367
:102DC00071F180E10E94680C0E94D00E803139F5CB
:102DD00082E10E94680C0E94D00E823101F580E0F1
:102DE0000E94680C0E94D00E811119C084E080936B
:102DF000AD0415E51B8341E050E0BE016D5F7F4FE0
:102E00008BE190E00E94B60B198341E050E0BE01D7
:102E10006F5F7F4F8AE190E00E94B60BC5CF1092A2
:102E200000050E94250680E00F900F900F90DF9123
:102E3000CF911F910895FC0120812EBD9B0121504F
:102E4000310941F051810DB407FEFDCF4EB55EBD95
:102E50004193F5CF61507109FC01E60FF71F0DB4E6
:102E600007FEFDCF8EB580830895CF93C82F462FE0
:102E700061E070E00E94A20E61E070E08C2F0E9481
:102E8000E90E8111F9CFCF910895AF92BF92CF9201
:102E9000DF92EF92FF920F931F93CF93DF9300D0B7
:102EA0001F92CDB7DEB78C016B017A0180910005CE
:102EB0008333F1F45B016801C40ED51E0C151D05AA
:102EC00009F45EC00E94A40B8FE00E94AF0B812F1B
:102ED0000E94AF0B802F0E94AF0B0F5F1F4F80E04F
:102EE0000E94AF0BF50181935F010E949A0BE6CF20
:102EF0008433E1F40E94A40B19830A838F2D8F770A
:102F00008B83EC8264E070E0CE01019694DFA70130
:102F100060E070E0C6010E948924E114F10419F018
:102F2000B701C60188DF0E949A0B2AC00E94A40B39
:102F30000F3F110509F020F419820A831B821DC07E
:102F400017FD0BC019820A8333E0169507953A9551
:102F5000E1F7007E08600B8310C0C80126E096955B
:102F600087952A95E1F719830A83807E0115104C15
:102F700010F4806101C088618B8363E070E0C4CF8E
:102F8000C7010F900F900F900F90DF91CF911F917D
:102F90000F91FF90EF90DF90CF90BF90AF9008958A
:102FA000CF92DF92EF92FF92CF93DF93B091A20680
:102FB000882311F0AB2F01C0A0E08091A30690E020
:102FC000880F991F8E569E4FC090A806D090A906D4
:102FD000E090AA06F090AB0620E030E0FC01C5913D
:102FE000D491E881EB23A90160E070E0EA130CC002
:102FF0002F5F3F4F4C155D056E057F0578F33FEF62
:103000002FEF8FEF9FEF03C0322F252FCB01632FC0
:10301000722FDF91CF91FF90EF90DF90CF900895C6
:10302000CF93DF93623028F090919206986090934E
:103030009206609396061092970690E490939806F5
:103040008093990690E0805C9F4F80939A0661E0A0
:1030500080918706B7DC809188068F3F11F061E090
:10306000B1DC61E080918906ADDCC3E8D6E09E0169
:10307000235836408091920684FD03C084E090E09E
:1030800002C088E090E021962817390724F461E017
:103090008E8198DCECCF8BE39DE00197F1F760E047
:1030A00080918706FEDB60E080918906FADB8091E3
:1030B00088068F3F11F060E0F4DB8091920684FD7A
:1030C0001CC063E083E896E047DDCBE4D6E4CE01A4
:1030D0000197F1F763E083E896E03EDD2197F1F791
:1030E00063E083E896E038DD83E592E00197F1F74D
:1030F00062E083E896E030DD12C08062ACD58BE4FC
:1031000096E40197F1F7809192068062A4D583E559
:1031100092E00197F1F78091920680629CD58091B0
:103120009206806298D584E0809393068CE093D5D4
:1031300081E091D58BE39FE10197F1F782E08093E5
:10314000940686E0DF91CF9186C5CF92DF92EF9211
:10315000FF92CF93DF936C01990FEE08FF08F7FE03
:1031600019C06DE283E896E0CADAEC0144275527DE
:10317000BA014C195D096E097F092AE083E896E0DF
:1031800067D48C0F9D1FDF91CF91FF90EF90DF9060
:10319000CF9008952AE0B701A60183E896E0DF9179
:1031A000CF91FF90EF90DF90CF9052C4CF92DF92FB
:1031B000EF92FF920F931F93CF93DF93CDB7DEB7BC
:1031C000C054D1400FB6F894DEBF0FBECDBF6EDC49
:1031D0000091A4061091A5062091A6063091A7069D
:1031E0006B017C01C01AD10AE20AF30A40EDC41651
:1031F00047E0D406E104F10418F48091AC06B7C0AE
:103200006093A4067093A5068093A6069093A706E4
:1032100010929F0610929E0610929D0610929C0698
:1032200010929B0662E08091A006CCDB61E070E02A
:1032300080E090E003DC61E08091A006C3DB60E009
:103240008091A0062EDB8091A1068551823028F462
:103250008BE291E10197F1F705C064E170E080E055
:1032600090E0ECDB62E08091A006ACDB8BE990E0C3
:103270000197F1F7F89480E093DE6F3F7F4F8F4F17
:103280009F4F21F41092AC0678943EC081E088DE16
:103290006F3F7F4F8F4F9F4FA9F38E010F5F1F4FDF
:1032A0006E012FEBC21A2EEFD20A780180E078DE91
:1032B000F701608371838283938381E071DEF7017C
:1032C0006483758386839783F8E0EF0EF11CEC141A
:1032D000FD0461F7789420E030E0F801C080D180EF
:1032E000E280F3804481558166817781FFEFCF16BC
:1032F000DF06EF06FF0631F04F3F8FEF58076807F4
:10330000780721F41092AC0680E031C0F90183E027
:10331000F595E7958A95E1F7E556F94F8081880F95
:10332000C416D506E606F70608F4816080832F5F91
:103330003F4F085F1F4F2832310579F620919F06D5
:1033400030E040919B0680919C0690E0840F911D97
:1033500040919D06840F911D40919E06840F911D02
:1033600099272817390771F681E08093AC06C05C75
:10337000DE4F0FB6F894DEBF0FBECDBFDF91CF9109
:103380001F910F91FF90EF90DF90CF9008954F9293
:103390005F926F927F928F929F92AF92BF92CF92E5
:1033A000DF92EF92FF920F931F93CF93DF93CDB7EE
:1033B000DEB763970FB6F894DEBF0FBECDBF7C01BA
:1033C0005B013A01FB0120E080E090E06AE031918E
:1033D000332309F140ED430F4A3080F4689FA00188
:1033E000699F500D1124CA01C097830F911D37FDAD
:1033F0009A958F3F910559F350F313C03E3289F4EB
:10340000233079F0D301A20FB11D12968C932F5F58
:1034100080E090E0DCCF233021F4F301858381E06C
:1034200020C0F70142815381648175818091A70595
:103430009091A805A091A905B091AA054817590730
:103440006A077B0709F48CC131DB8701085F1F4FD6
:103450006F7077277C5FC8010E94EC01813019F002
:1034600080E090E0D5C187EE92E09A838983F701EE
:1034700082819381A481B5818B839C83AD83BE833C
:1034800045E350E0BE016F5F7F4FC8010E945A0EB6
:10349000892B19F4C12CD12C5EC108DBF70177838D
:1034A000668342E050E0B7016A5F7F4FC8010E9427
:1034B000EA0D81E090E09A83898342E050E0BE010A
:1034C0006F5F7F4FC8010E94EA0D80E091E09A8310
:1034D000898342E050E0BE016F5F7F4FC8010E94C8
:1034E000EA0D1A82198242E050E0BE016F5F7F4F01
:1034F000C8010E94EA0D42E050E0BE016F5F7F4FBD
:10350000C8010E94EA0D42E050E0BE016F5F7F4FAC
:10351000C8010E94EA0D4501F5018081882301F16F
:1035200064015601F60181912F01882321F08E322A
:1035300011F06201F6CFC818D9081C141D0474F4E8
:10354000CD8641E050E0BE01635F7F4FC8010E941D
:10355000EA0DA601B401C8010E94EA0D4201DCCFC8
:103560001D8641E050E0BE01635F7F4FC8010E94AD
:10357000EA0DC12CDD24D394DA82C98242E050E006
:10358000BE016F5F7F4FC8010E94EA0DDA82C982D7
:1035900042E050E0BE016F5F7F4FC8010E94EA0D1C
:1035A000C8010E94DF11892B09F474CFE3E0AE2E2D
:1035B000B12C230122E0420E511C78DA3B014C0170
:1035C000C8010E94AD101816190694F06FDADC01DC
:1035D000CB0186199709A809B90989389341A10532
:1035E000B105C8F462E370E080E090E027DAE8CF4C
:1035F000F7014281538164817581808D918DA28D07
:10360000B38D481759076A077B0749F4848D958D58
:10361000C59729F409C0CC24CA94DC2C93C05EEF72
:10362000C52EDD24DA948EC0F70181A192A10C97FA
:103630000CF4E9C04CE050E0BE016F5F7F4FC80161
:103640000E9467108B819C819827892798279A8BE5
:10365000898BF7014681578129813A8142175307A7
:1036600009F0C2C097FFC0C08F709270892B09F01B
:10367000C0C06F8078847624672476246114710436
:1036800009F4BCC0C12CD12C8D819E81982789273B
:103690009827C816D90608F466C0812C912C41E001
:1036A00050E0BE016D5E7F4FC8010E9467104B89DC
:1036B000842F807C09F076C0442331F050E060E034
:1036C00070E0C8010E9467108B898111E8CF42E049
:1036D00050E0BE01615F7F4FC8010E94671042E069
:1036E00050E0BE01635F7F4FC8010E94671044E055
:1036F00050E060E070E0C8010E94671042E050E0D6
:10370000BE016F5E7F4FC8010E9467108F85988948
:1037100049895A898115914009F04DC0CD84DE84D4
:10372000DC24CD24DC2481E0C816D10409F043C098
:103730004115544009F053C044E050E0B201C801C3
:103740000E94671021E0A21AB10829F0FFEFCF16FE
:10375000DF0609F432CFC8010E94DE01C60158C05D
:103760008EEF9FEF55C041E050E0BE01635F7F4F99
:10377000C8010E9467104D85442331F050E060E09D
:1037800070E0C8010E9467108D858111ECCF44E084
:1037900050E060E070E0C8010E946710FFEFCF1AB0
:1037A000DF0A72CF41E050E060E070E0C8010E94A3
:1037B00067101B8A89CF54274527542760E070E0A3
:1037C000C8010E946710FFEF8F1A9F0A68147904DE
:1037D00009F065CF96EFC92EDD24DA94B3CF77EFE9
:1037E000C72EDD24DA94AECF4CEFC42EDD24DA945C
:1037F000A9CF3BEFC32EDD24DA94A4CF2AEFC22E4B
:10380000DD24DA949FCF8DEFC82EDD24DA949ACF91
:1038100063960FB6F894DEBF0FBECDBFDF91CF9198
:103820001F910F91FF90EF90DF90CF90BF90AF90DE
:103830009F908F907F906F905F904F900895FC01C4
:1038400087EE92E091838083128213821482158224
:103850001386128648EE53E060E070E04487558797
:103860006687778728E832E031872087978B868BB9
:10387000108E118E128E138E88E080A308958F9281
:103880009F92AF92BF92CF92DF92EF92FF920F93EF
:103890001F93CF93DF93CDB7DEB760970FB6F89441
:1038A000DEBF0FBECDBF7C0190910005992309F4C6
:1038B000BAC0933311F008E001C004E05B01CE010F
:1038C00001960ED189819A810E9426069E012F5F62
:1038D0003F4F6901490110E0812F0E94F70EF4016A
:1038E00081934F018823C1F01F5F0113F5CF10E0D2
:1038F000F60181916F018D3159F0883149F08A517B
:10390000823030F01F5F0113F3CF0E9425068BC079
:1039100060E170E0812FA9DAC12ED12CF601EE0F03
:10392000FF1FE051FB4F1182108283EE93E001975D
:10393000F1F742E860E070E0812F0E94A20E4FEFA5
:1039400062E070E0812F0E94A20EA114B10411F078
:10395000B50113C08091000290910102019681157A
:10396000F0EC9F0710F480E090EC909301028093BC
:1039700000026091000270910102812F0E94450EA9
:1039800086E0EEE7F2E0DE01199601900D928A954D
:10399000E1F7F70183818F778C8784818D8785811B
:1039A0008E87A7014E5F5F4F24E030E06CE070E04F
:1039B000812F0E945D0DB501812F0E94300E26E0FF
:1039C00030E0AE01475F5F4F66E070E0812F0E94FC
:1039D0005D0D61E070E0812F48DA27E02C9DC00189
:1039E0002D9D900D11249C0128543B4F7901F90124
:1039F0001182108222E030E0AE01415F5F4F68E249
:103A000070E0812F0E9413068F8598899827892757
:103A10009827F701938382831682158214820E946D
:103A20002506812F01C088E060960FB6F894DEBFAE
:103A30000FBECDBFDF91CF911F910F91FF90EF90FF
:103A4000DF90CF90BF90AF909F908F9008955DD7FB
:103A50008F929F92AF92BF92EF92FF920F931F931C
:103A6000CF93DF93CDB7DEB7A1970FB6F894DEBF43
:103A70000FBECDBF7C01FA01CB0119A2223008F4A0
:103A80002AE08E010F5D1F4F822E912CA12CB12CAC
:103A9000BF01A501940135D5F901CA0101501109F1
:103AA0006A3014F4605D01C0695CD8016C93232B0B
:103AB000242B252B69F7B801C7010E94CB13A196CF
:103AC0000FB6F894DEBF0FBECDBFDF91CF911F912F
:103AD0000F91FF90EF90BF90AF909F908F900895BF
:103AE00020E5FC01208321E021830895CF92DF921D
:103AF000EF92FF92CF93DF93CDB7DEB7C454D109D5
:103B00000FB6F894DEBF0FBECDBFFC0142815381DA
:103B10006481758123964CAF5DAF6EAF7FAF239705
:103B200081E023968FAF23972396CCACDDACEEAC2F
:103B3000FFAC2397CBAADCAAEDAAFEAA4DA75EA7ED
:103B40006FA778AB88ABCDA4DEA4EFA4F8A8CFA272
:103B5000D8A6E9A6FAA68EABCBA8DCA8EDA8FEA84D
:103B6000C9A2DAA2EBA2FCA227EE32E03C8B2B8B9F
:103B70009FEF9D8B9E8B9F8B188E3E872D878AA7EC
:103B8000CFA0D8A4E9A4FAA4CF86D88AE98AFA8A71
:103B90008CA389A19AA1ABA1BCA189879A87AB8785
:103BA000BC873A8329834B835C836D837E838091BA
:103BB0000105882309F43EC0CE018D5B9F4F90DF45
:103BC00025968EAD9FAD25970E94260646E050E0D3
:103BD00062E072E089E090E00E94B60B44E050E0C1
:103BE000BE016D5F7F4F8FE090E00E94B60B44E016
:103BF00050E0BE01615F7F4F81E090E00E94B60B14
:103C000044E050E0BE016B5E7F4F85E090E00E9493
:103C1000B60B0E94250681E08C8789859A85AB8545
:103C2000BC858093A1059093A205A093A305B093B2
:103C3000A40503C00ED88111BFCFCC5BDF4F0FB6F8
:103C4000F894DEBF0FBECDBFDF91CF91FF90EF9014
:103C5000DF90CF90089540E0682F83E896E00C94C1
:103C6000D715643008F063E090919606691710F05C
:103C70006FEF690FE62FF0E0ED57F94F9489890F48
:103C80008068E9CFCF93DF93CDB7DEB7A0970FB6AB
:103C9000F894DEBF0FBECDBF789484B5826084BD3A
:103CA00084B5816084BD85B5826085BD85B5816040
:103CB00085BD80916E00816080936E0010928100BE
:103CC0008091810082608093810080918100816079
:103CD000809381008091800081608093800080913A
:103CE000B10084608093B1008091B00081608093C6
:103CF000B00080919100826080939100809191004A
:103D00008160809391008091900081608093900009
:103D10008091A10082608093A1008091A1008160C8
:103D20008093A1008091A00081608093A000809189
:103D30002101826080932101809121018160809323
:103D400021018091200181608093200180917A007F
:103D5000846080937A0080917A00826080937A00F8
:103D600080917A00816080937A0080917A008068E7
:103D700080937A001092C10062E08091A0060E94B8
:103D8000E2140E945615DC01CB01805D9740A10929
:103D9000B1098093A4069093A506A093A606B093BC
:103DA000A70664E084E13CD960E080E05ADF62E588
:103DB00073E083E896E00E94CB1361E080E051DF7E
:103DC00060E673E083E896E00E94CB1362E080E057
:103DD00048DF6EE673E083E896E00E94CB13E09143
:103DE0001205F091130582E08083E0910E05F091B9
:103DF0000F051082E0911005F09111058FEC808382
:103E000010921A05E0911605F091170586E080835F
:103E1000E0911405F0911505808180618083E09127
:103E20001405F0911505808188608083E091140568
:103E3000F0911505808180688083E0911405F091F0
:103E4000150580818F7D80836CE773E082E095E0CB
:103E50000E94E01387EE92E09A8389838091AF06F7
:103E60009091B006A091B106B091B2068B839C836D
:103E7000AD83BE838E010F5F1F4FC80137DEE09117
:103E80000005E353E53030F4F0E0E255FD4F80816A
:103E900081110DC067E973E082E095E00E94E013B4
:103EA00061E070E080E090E00E941E15F9CF809103
:103EB0000105882339F080910005843341F0873370
:103EC000B1F024C00E9429168111F5CF1FC0C8018E
:103ED00007DE89819A810E94260685E390E00E9490
:103EE000BF0EF82E0E942506F5FEA3C10FC0C80123
:103EF000F7DD89819A810E9426068EE290E00E9479
:103F0000BF0EF82E0E942506F0FE93C18DE796E0C5
:103F10000E9429066DED73E082E095E00E94CB13CC
:103F200087EE92E09A8389831B821C821D821E8207
:103F3000CE014096D5DD888999890E94260644E005
:103F400050E0BE016D5F7F4F8FE090E00E9445170B
:103F50000E94250662E075E0C8010E94861360E2B7
:103F600073E082E095E00E94CB1392E4A92E7E01DB
:103F700088E1E80EF11C6E0184E1C80ED11C16D94F
:103F8000882309F43AC08091A1068B30B0F18D30BE
:103F9000B0F08551823088F5B0909D066B2D6F771B
:103FA00070E0762F662780919E06682B80E090E077
:103FB00064D32DEC3CEC4CEC5DE315D41AC0B0900E
:103FC0009D0660919E066F7070E080E090E057D390
:103FD0002DEC3CEC4CEC5DE306D42B013C016B2D4D
:103FE00070E080E090E049D39B01AC01C301B201D5
:103FF000ABD2B7FE06C0905804C060E070E080EC21
:104000009FE70AD378A36F8FD1D8882391F180914D
:10401000A1068B3070F18D3098F08551823048F5D3
:1040200060919B0670919C0676276727762780E033
:1040300090E023D32DEC3CEC4CEC5DE3D4D31DC0DD
:1040400060919C0670E080E090E019D32DEC3CEC90
:104050004CEC5DE3C8D32B013C0160919B0670E002
:1040600080E090E00CD39B01AC01C301B2016CD2A3
:1040700004C060E070E080EC9FE7CED27E8F6D8F51
:1040800080917B00886080937B00A0927C0080916F
:104090007A00806480937A0080917A0086FDFCCF5C
:1040A000809178002091790090E0922B9C8F8B8FEB
:1040B000AE01415E5F4F6BEE73E08091AB05909176
:1040C000AC050E94250AAE01435E5F4F60EF73E0CE
:1040D0008091AB059091AC050E94250AAE01455E2A
:1040E0005F4F64EF73E08091AB059091AC050E9447
:1040F000250A60E08DE0B5DD8F8D98A126D86FEDA3
:1041000083E896E00E94241668EF73E083E896E067
:104110000E94CB1361E08DE0A4DD8D8D9E8D15D8BE
:104120006AEF73E083E896E00E94CB1362E08DE0D3
:1041300098DD6CEF73E083E896E00E94CB136DE7A7
:1041400076E0C8010E9433058D85883008F06EC086
:104150006FEF73E082E095E00E94E013BB24B3941C
:10416000C8010E945602882309F451C0C8010E9468
:104170007902892BA9F3C8010E94D802982E682FD2
:1041800082E095E00E94B5128AE098123AC0BB2006
:1041900029F36AE074E0C8010E94E0136AE174E068
:1041A000C8010E94E01369E374E0C8010E94E013B3
:1041B00068E574E0C8010E94E0136AE674E0C80193
:1041C0000E94E01360E273E0C8010E94CB132091CB
:1041D000AB053091AC05198F088F9A8D907890625D
:1041E00090689A8FFE8AED8A1C8A1F8AD98AC88AAB
:1041F0001B8A1A8ABE01605F7F4FC9010E94930724
:1042000006C08DE0981609F4ABCFB12CA9CF61E0C0
:1042100070E080E090E00E941E15C8010E948202BA
:1042200065E774E082E095E00E94E0130E942213AB
:10423000A6CE69E874E082E095E00E94E01366CEC5
:10424000109205051092040588EE93E0A0E0B0E01E
:104250008093060590930705A0930805B093090580
:1042600089EC92E0909303058093020585EC90E041
:1042700090930F0580930E0584EC90E090931105C8
:104280008093100580EC90E09093130580931205C5
:1042900081EC90E0909315058093140582EC90E0FA
:1042A000909317058093160586EC90E0909319057E
:1042B0008093180510921B0510921C0510921D0585
:1042C00010921E0587EE92E09093BA068093B9068D
:1042D0001092BB061092BC061092BD061092BE064C
:1042E0009093C0068093BF061092C1061092C2063A
:1042F0001092C3061092C4069093C6068093C5061A
:104300001092C7061092C8061092C9061092CA06EB
:104310009093CC068093CB061092CD061092CE06D9
:104320001092CF061092D0069093D2068093D106B9
:104330001092D3061092D4061092D5061092D6068B
:104340009093D8068093D7061092D9061092DA0679
:104350001092DB061092DC069093A00580939F05D7
:104360001092A1051092A2051092A3051092A40527
:104370009093A6058093A5051092A7051092A80515
:104380001092A9051092AA059093DE068093DD068F
:104390001092DF061092E0061092E1061092E206FB
:1043A0009093B4068093B3061092B5061092B606A9
:1043B0001092B7061092B8069093AE068093AD06A1
:1043C00080EC8093AF0688EA8093B00684E6809301
:1043D000B10688EC8093B2068EE18093A0068BE054
:1043E0008093A106E0E1F2E0E491E093A206EAEC1A
:1043F000F1E0E491E093A30680E89EE3A0E0B0E062
:104400008093A8069093A906A093AA06B093AB0642
:1044100010928606109285068BED92E090938406AA
:104420008093830682E2809387068FEF80938806CD
:1044300084E28093890686E280938A068EE28093E6
:104440008B068AE280938C068CE280938D06109214
:104450008E0610928F06109290061092910610927E
:10446000920661E080E10E9410181092800610927E
:104470007F0689EF92E090937E0680937D0680E52B
:1044800090E0909382068093810685EB95E090936F
:10449000B0058093AF0588EC90E09093B2058093CF
:1044A000B1051092B4051092B30583EF92E090939A
:1044B000AE058093AD0564E070E08DEA95E00E9462
:1044C000C601009741F02DEA35E0FC0131832083DD
:1044D0001382128211C08091E70681110BC01092E5
:1044E000E4061092E3061092E6061092E50681E0DB
:1044F0008093E70683EE96E09093AC058093AB053E
:104500000895A1E21A2EAA1BBB1BFD010DC0AA1F14
:10451000BB1FEE1FFF1FA217B307E407F50720F02C
:10452000A21BB30BE40BF50B661F771F881F991FA7
:104530001A9469F760957095809590959B01AC01F0
:10454000BD01CF0108955058BB27AA270ED00DC139
:10455000FED030F003D120F031F49F3F11F41EF46F
:10456000F3C00EF4E095E7FBE9C0E92F0FD180F32B
:10457000BA17620773078407950718F071F49EF560
:1045800027C10EF4E0950B2EBA2FA02D0B01B90117
:1045900090010C01CA01A0011124FF27591B99F0B9
:1045A000593F50F4503E68F11A16F040A22F232FC5
:1045B000342F4427585FF3CF469537952795A79515
:1045C000F0405395C9F77EF41F16BA0B620B730BBC
:1045D000840BBAF09150A1F0FF0FBB1F661F771F2D
:1045E000881FC2F70EC0BA0F621F731F841F48F4E2
:1045F000879577956795B795F7959E3F08F0B3CF68
:104600009395880F08F09927EE0F97958795089551
:1046100071D008F481E0089504D06894B111D9C034
:104620000895BCD088F09F5790F0B92F9927B751C3
:10463000A0F0D1F0660F771F881F991F1AF0BA9566
:10464000C9F712C0B13081F0C3D0B1E00895C0C045
:10465000672F782F8827B85F39F0B93FCCF386955C
:1046600077956795B395D9F73EF4909580957095B9
:1046700061957F4F8F4F9F4F0895E89409C097FB36
:104680003EF490958095709561957F4F8F4F9F4F29
:104690009923A9F0F92F96E9BB279395F69587956D
:1046A00077956795B795F111F8CFFAF4BB0F11F430
:1046B00060FF1BC06F5F7F4F8F4F9F4F16C08823D7
:1046C00011F096E911C0772321F09EE8872F762F0D
:1046D00005C0662371F096E8862F70E060E02AF04E
:1046E0009A95660F771F881FDAF7880F969587953A
:1046F00097F90895990F0008550FAA0BE0E8FEEF0F
:1047000016161706E807F907C0F012161306E40795
:10471000F50798F0621B730B840B950B39F40A268E
:1047200061F0232B242B252B21F408950A2609F46C
:10473000A140A6958FEF811D811D089597F99F6770
:1047400080E870E060E008959FEF80EC0895002419
:104750000A941616170618060906089500240A94E6
:1047600012161306140605060895092E0394000C6C
:1047700011F4882352F0BB0F40F4BF2B11F460FFFB
:1047800004C06F5F7F4F8F4F9F4F089557FD905824
:10479000440F551F59F05F3F71F04795880F97FB05
:1047A000991F61F09F3F79F08795089512161306BF
:1047B0001406551FF2CF4695F1DF08C016161706EE
:1047C0001806991FF1CF8695710561050894089523
:1047D000E894BB2766277727CB0197F908958ADFEE
:1047E00008F48FEF08950BD0C0CFB1DF28F0B6DF0B
:1047F00018F0952309F0A2CFA7CF1124EACFC6DF86
:10480000A0F3959FD1F3950F50E0551F629FF001E3
:10481000729FBB27F00DB11D639FAA27F00DB11D3C
:10482000AA1F649F6627B00DA11D661F829F2227C5
:10483000B00DA11D621F739FB00DA11D621F839F4C
:10484000A00D611D221F749F3327A00D611D231F22
:10485000849F600D211D822F762F6A2F11249F5770
:1048600050408AF0E1F088234AF0EE0FFF1FBB1F93
:10487000661F771F881F91505040A9F79E3F510532
:1048800070F05CCFA6CF5F3FECF3983EDCF38695EB
:1048900077956795B795F795E7959F5FC1F7FE2BDD
:1048A000880F911D9695879597F9089597FB072E88
:1048B00016F4009406D077FD08D013D007FC05D07D
:1048C0003EF4909581959F4F0895709561957F4F27
:1048D0000895EE0FFF1F881F8BBF0790F691E02D04
:1048E0001994AA1BBB1B51E107C0AA1FBB1FA61727
:1048F000B70710F0A61BB70B881F991F5A95A9F789
:1049000080959095BC01CD01089581E090E0F894E8
:1049100010C0DC0101C06D9341505040E0F7089594
:10492000FB01DC018D91019080190110D9F3990BE5
:064930000895F894FFCF8A
:1049360000C0DEADBEEFFEED0000803FCDCCCC3D2D
:104946006F12833A95BFD6337D1D9026B3CE010CE8
:10495600CDCCCC3D0AD7233C17B7D13877CC2B32F8
:104966009595E6241FB14F0A000020410000C84279
:1049760000401C4620BCBE4CCA1B0E5AAEC59D74D8
:104986000000000074010A02CF02BA027902D802BE
:10499600FB0201071503F202820256029D019A01EB
:1049A600980169018E01D406900663068A0101000A
:1049B6005E00000000000000AF0AEA0DDB01AE0A4F
:1049C6004F018510A50CEC011D0DDE015A0E330BAF
:1049D600DF11AD106710BD01AD01A901A5010102EE
:1049E60000000300000000271D2312DB01DA012767
:1049F6001D271D271D00000000B51223124D1201B0
:104A0600137E125C1270120000000024162312DBC3
:104A160001DA0100000000861300000000271D00D7
:104A2600000000C601000000005301BA05DB01DAF0
:104A3600012906290200000000271D2312DB01DAE6
:104A460001271D00000000271D2312DB01DA012CBF
:104A56000D0A0022225C5C6208660C6E0A720D74F6
:104A660009006E756C6C00747275650066616C7316
:104A760065004E614E00652D00496E66696E69746B
:104A8600790054656D70657261747572613A2000C3
:104A960020202020556D69646164653A200020203D
:104AA6002020202020204761733A20004574686545
:104AB600726E65742057656253657276657220451D
:104AC60078616D706C650045746865726E657420FA
:104AD600736869656C6420776173206E6F742066F5
:104AE6006F756E642E2020536F7272792C2063616D
:104AF6006E27742072756E20776974686F757420DE
:104B060068617264776172652E203A280073657257
:104B1600766572206973206174200074656D70007B
:104B260068756D0067617300430025003235006EBD
:104B3600657720636C69656E7400485454502F3154
:104B46002E3120323030204F4B00436F6E74656E2D
:104B5600742D547970653A206170706C6963617464
:104B6600696F6E2F6A736F6E004163636573732D91
:104B7600436F6E74726F6C2D416C6C6F772D4F7234
:104B86006967696E3A202A00436F6E6E65637469C1
:104B96006F6E3A20636C6F7365005265667265735B
:104BA600683A203500636C69656E742064697363C6
:104BB6006F6E6E65637465640045746865726E65D4
:104BC60074206361626C65206973206E6F74206364
:0A4BD6006F6E6E65637465642E0057
:00000001FF
